{
  "contracts/NftMarketplace.sol": {
    "NftMarketplace": {
      "abi": [
        {
          "inputs": [
            {
              "internalType": "address",
              "name": "nftAddress",
              "type": "address"
            },
            {
              "internalType": "uint256",
              "name": "tokenId",
              "type": "uint256"
            }
          ],
          "name": "NftMarketplace__AlreadyListed",
          "type": "error"
        },
        {
          "inputs": [],
          "name": "NftMarketplace__NoProceeds",
          "type": "error"
        },
        {
          "inputs": [],
          "name": "NftMarketplace__NotApprovedForMarketplace",
          "type": "error"
        },
        {
          "inputs": [
            {
              "internalType": "address",
              "name": "nftAddress",
              "type": "address"
            },
            {
              "internalType": "uint256",
              "name": "tokenId",
              "type": "uint256"
            }
          ],
          "name": "NftMarketplace__NotListed",
          "type": "error"
        },
        {
          "inputs": [],
          "name": "NftMarketplace__NotOwner",
          "type": "error"
        },
        {
          "inputs": [],
          "name": "NftMarketplace__PriceMustBeAboveZero",
          "type": "error"
        },
        {
          "inputs": [
            {
              "internalType": "address",
              "name": "nftAddress",
              "type": "address"
            },
            {
              "internalType": "uint256",
              "name": "tokenId",
              "type": "uint256"
            },
            {
              "internalType": "uint256",
              "name": "price",
              "type": "uint256"
            }
          ],
          "name": "NftMarketplace__PriceNotMet",
          "type": "error"
        },
        {
          "inputs": [],
          "name": "NftMarketplace__TransferFailed",
          "type": "error"
        },
        {
          "anonymous": false,
          "inputs": [
            {
              "indexed": true,
              "internalType": "address",
              "name": "buyer",
              "type": "address"
            },
            {
              "indexed": true,
              "internalType": "address",
              "name": "nftAddress",
              "type": "address"
            },
            {
              "indexed": true,
              "internalType": "uint256",
              "name": "tokenId",
              "type": "uint256"
            },
            {
              "indexed": false,
              "internalType": "uint256",
              "name": "price",
              "type": "uint256"
            }
          ],
          "name": "ItemBought",
          "type": "event"
        },
        {
          "anonymous": false,
          "inputs": [
            {
              "indexed": true,
              "internalType": "address",
              "name": "seller",
              "type": "address"
            },
            {
              "indexed": true,
              "internalType": "address",
              "name": "nftAddress",
              "type": "address"
            },
            {
              "indexed": true,
              "internalType": "uint256",
              "name": "tokenId",
              "type": "uint256"
            }
          ],
          "name": "ItemCanceled",
          "type": "event"
        },
        {
          "anonymous": false,
          "inputs": [
            {
              "indexed": true,
              "internalType": "address",
              "name": "seller",
              "type": "address"
            },
            {
              "indexed": true,
              "internalType": "address",
              "name": "nftAddress",
              "type": "address"
            },
            {
              "indexed": true,
              "internalType": "uint256",
              "name": "tokenId",
              "type": "uint256"
            },
            {
              "indexed": false,
              "internalType": "uint256",
              "name": "price",
              "type": "uint256"
            }
          ],
          "name": "ItemListed",
          "type": "event"
        },
        {
          "inputs": [
            {
              "internalType": "address",
              "name": "nftAddress",
              "type": "address"
            },
            {
              "internalType": "uint256",
              "name": "tokenId",
              "type": "uint256"
            }
          ],
          "name": "buyItem",
          "outputs": [],
          "stateMutability": "payable",
          "type": "function"
        },
        {
          "inputs": [
            {
              "internalType": "address",
              "name": "nftAddress",
              "type": "address"
            },
            {
              "internalType": "uint256",
              "name": "tokenId",
              "type": "uint256"
            }
          ],
          "name": "cancelItem",
          "outputs": [],
          "stateMutability": "nonpayable",
          "type": "function"
        },
        {
          "inputs": [
            {
              "internalType": "address",
              "name": "nftAddress",
              "type": "address"
            },
            {
              "internalType": "uint256",
              "name": "tokenId",
              "type": "uint256"
            }
          ],
          "name": "getListing",
          "outputs": [
            {
              "components": [
                {
                  "internalType": "uint256",
                  "name": "price",
                  "type": "uint256"
                },
                {
                  "internalType": "address",
                  "name": "seller",
                  "type": "address"
                }
              ],
              "internalType": "struct NftMarketplace.Listing",
              "name": "",
              "type": "tuple"
            }
          ],
          "stateMutability": "view",
          "type": "function"
        },
        {
          "inputs": [
            {
              "internalType": "address",
              "name": "seller",
              "type": "address"
            }
          ],
          "name": "getProceeds",
          "outputs": [
            {
              "internalType": "uint256",
              "name": "",
              "type": "uint256"
            }
          ],
          "stateMutability": "view",
          "type": "function"
        },
        {
          "inputs": [
            {
              "internalType": "address",
              "name": "nftAddress",
              "type": "address"
            },
            {
              "internalType": "uint256",
              "name": "tokenId",
              "type": "uint256"
            },
            {
              "internalType": "uint256",
              "name": "price",
              "type": "uint256"
            }
          ],
          "name": "listItem",
          "outputs": [],
          "stateMutability": "nonpayable",
          "type": "function"
        },
        {
          "inputs": [
            {
              "internalType": "address",
              "name": "nftAddress",
              "type": "address"
            },
            {
              "internalType": "uint256",
              "name": "tokenId",
              "type": "uint256"
            },
            {
              "internalType": "uint256",
              "name": "newPrice",
              "type": "uint256"
            }
          ],
          "name": "updateListing",
          "outputs": [],
          "stateMutability": "nonpayable",
          "type": "function"
        },
        {
          "inputs": [],
          "name": "withdrawProceeds",
          "outputs": [],
          "stateMutability": "nonpayable",
          "type": "function"
        }
      ],
      "devdoc": {
        "kind": "dev",
        "methods": {},
        "version": 1
      },
      "evm": {
        "bytecode": {
          "linkReferences": {},
          "object": "608060405234801561001057600080fd5b506001600081905550612e22806100286000396000f3fe6080604052600436106100705760003560e01c80638f6d40d21161004e5780638f6d40d2146101185780639038e693146101415780639f37092a14610158578063f772adf11461017457610070565b806330cfeda91461007557806388700d1c146100b257806389bfd38f146100ef575b600080fd5b34801561008157600080fd5b5061009c60048036038101906100979190612a34565b61019d565b6040516100a99190612a7a565b60405180910390f35b3480156100be57600080fd5b506100d960048036038101906100d49190612ac1565b61026a565b6040516100e69190612b4e565b60405180910390f35b3480156100fb57600080fd5b5061011660048036038101906101119190612b69565b6103b9565b005b34801561012457600080fd5b5061013f600480360381019061013a9190612ac1565b610e8d565b005b34801561014d57600080fd5b5061015661159c565b005b610172600480360381019061016d9190612ac1565b6119f2565b005b34801561018057600080fd5b5061019b60048036038101906101969190612b69565b612281565b005b60006101cb7f2b56bbcb13b302b9772e079cd1b03ff7eb876728b7be7e626d9944f353c2b1ab60001b61299e565b6101f77f0b8432a8a2ac81b97ea396963a0094351b1f8bcdeb981c33fa8ecc88cf8bac3360001b61299e565b6102237fb967a14250ed3761cda0b5039e59fff9bd9c0c6efe8f89a50d5eaaa444979ba660001b61299e565b600260008373ffffffffffffffffffffffffffffffffffffffff1673ffffffffffffffffffffffffffffffffffffffff168152602001908152602001600020549050919050565b6102726129a1565b61029e7f72e1516487dacbde4acddd5bf69db6a55e669b2e53cdb33067241f68a6d21a3560001b61299e565b6102ca7f28175f3e9033f5772b1f725cbe8774b0efcfbedb158c32fdc4058f19fc1ee19b60001b61299e565b6102f67f9fd0b97b962606751e959333b6413ec238aaa04813f13e9d399885c559960cb060001b61299e565b600160008473ffffffffffffffffffffffffffffffffffffffff1673ffffffffffffffffffffffffffffffffffffffff1681526020019081526020016000206000838152602001908152602001600020604051806040016040529081600082015481526020016001820160009054906101000a900473ffffffffffffffffffffffffffffffffffffffff1673ffffffffffffffffffffffffffffffffffffffff1673ffffffffffffffffffffffffffffffffffffffff1681525050905092915050565b8282336103e87f42a0cbeb3ec4ad3b5f7a347643e465aa377e794f527d34bc86848b11d07c617360001b61299e565b6104147f28284abe0b3ea146724aa149586e91b76a3d701f82f285ffecb6ae2e9fe9ba0e60001b61299e565b6104407f5a631151367a299d1ebd5654744d8e9cbc5c2028f13d8e4fbe2ba58cb761b25160001b61299e565b6000600160008573ffffffffffffffffffffffffffffffffffffffff1673ffffffffffffffffffffffffffffffffffffffff1681526020019081526020016000206000848152602001908152602001600020604051806040016040529081600082015481526020016001820160009054906101000a900473ffffffffffffffffffffffffffffffffffffffff1673ffffffffffffffffffffffffffffffffffffffff1673ffffffffffffffffffffffffffffffffffffffff1681525050905061052b7f5aca2b980312f38503f75a732a5b2ca9d6e6297fe7fc7fbf4b3ce7ac9e1e9cdf60001b61299e565b6105577f30e59c8c28a922b240fdbf722a156c383fc95cbb25daade95078701146ca7c6560001b61299e565b6000816000015111156105fb576105907f59b43fbba85bc84fcec17f565af0567569c961a26281a25df4155a2cd06971ea60001b61299e565b6105bc7f0f5b4acddfe78b12ff5a765013bf08087b7025d844f39f66d1dd8f08ca778f5360001b61299e565b83836040517fc2f0d7090000000000000000000000000000000000000000000000000000000081526004016105f2929190612bcb565b60405180910390fd5b6106277f53d48f14f2c6112d8935bbbb4626853a02fafb5c6b50e76f35c5b8b5bce76f2160001b61299e565b6106537f10df3ff66ae2455b78a0a9e4cdcd353ee155fd0ae7171e1db537565b4495fc6e60001b61299e565b8686336106827f8d487aebfe920b1b14f9a6b3ad856608d6d72debf0dde958b3062c37d01544de60001b61299e565b6106ae7f98660ed6db4aa03b4bc58e81064599b86ecac1a13d18bbe061e4f5dcebd690c460001b61299e565b6106da7f95ba6fc28c15c0202559f2c926446ae6e05fa23e02f6a27f33e03416119001e860001b61299e565b600083905061070b7f0bf5e21f8ae568549908641cf09bae6a7f720838de7f128d3a33b38b371ddcef60001b61299e565b6107377ff7e8190802353d83ffdbe86714f986da05ef6e16354d7a9dbc9ce30ba5acf3f360001b61299e565b60008173ffffffffffffffffffffffffffffffffffffffff16636352211e856040518263ffffffff1660e01b81526004016107729190612a7a565b60206040518083038186803b15801561078a57600080fd5b505afa15801561079e573d6000803e3d6000fd5b505050506040513d601f19601f820116820180604052508101906107c29190612c09565b90506107f07fd29043f3603c24acda5fe42185f8c7cde57f0b19fcdcb7e5cdbdfb4e5338760660001b61299e565b61081c7f38af511f00f85b44768ec2fdf41e396aa1ec0a0146025d3c69a72c21971b9eae60001b61299e565b8073ffffffffffffffffffffffffffffffffffffffff168373ffffffffffffffffffffffffffffffffffffffff16146108d95761087b7fbfa2064f977c58a33e61324c2bc1024fba1bc6a9a9a4b0f310a80f0f0cb945b660001b61299e565b6108a77f3f47f080d38b1c2117cc16b02a39b39eef4aa1f4064167e79adec5a40673444d60001b61299e565b6040517f94953b6000000000000000000000000000000000000000000000000000000000815260040160405180910390fd5b6109057f2504e51202c54c11d97144fcf56974e080f2e2f5dfc21faa4bbe11f08ea43ec860001b61299e565b6109317f5a7c0eba47a7add64cdab858e2de08225b43edc3477efac427bccfd37ced338260001b61299e565b61095d7fac56c6ec363f23c6c4b48218ec475077a451e9ee0b0f2793532907bf50be124660001b61299e565b6109897f631adeadb05d13ab163c42bbf93f4441ef5767db64b87fb7286c8d72511989ef60001b61299e565b6109b57f35f0f881375eb628c75a933ec5bb1e483526ca33c6e1cecd42a3f9626b5f3f0360001b61299e565b60008a11610a47576109e97f88f47ab3df624e63648eb013f488668665188db9b576d4a97dfedd029a1d3ae660001b61299e565b610a157f819cd97442683c4c0ed40732bd39170ec46edbdc7725de506d9413ffb18a1a3860001b61299e565b6040517f096d7ecf00000000000000000000000000000000000000000000000000000000815260040160405180910390fd5b610a737fbce23f0a0642b79d8c282821f983c01c03a16744f58d34210921cccf8703d43b60001b61299e565b610a9f7f1f2820838bc2ab17116ecb9923194dafc86a6ad83ea131266546d3ebcc4c939d60001b61299e565b610acb7fbae7f60c7307337cdd239dca96737aae0eda24e9458c14f7cdaccde4d066840860001b61299e565b60008c9050610afc7f6f2b526ea0edbf37a89e3e0855a0bab20333c7433081d2f3e69ade0cb42f808b60001b61299e565b610b287f6756ccb51876b8c8925ec229b72701c647813a64efa48e140dc45591991b88a060001b61299e565b3073ffffffffffffffffffffffffffffffffffffffff168173ffffffffffffffffffffffffffffffffffffffff1663081812fc8e6040518263ffffffff1660e01b8152600401610b789190612a7a565b60206040518083038186803b158015610b9057600080fd5b505afa158015610ba4573d6000803e3d6000fd5b505050506040513d601f19601f82011682018060405250810190610bc89190612c09565b73ffffffffffffffffffffffffffffffffffffffff1614610c6d57610c0f7fcf931d24421302a73d1c4e3761c0a27124d6ec9d6e2890b07833a365137d319a60001b61299e565b610c3b7f11aa20773c6a716db8cc8d3914ec3c6a21e3b8658016810cb81e7505412fa9ba60001b61299e565b6040517f13e7d28d00000000000000000000000000000000000000000000000000000000815260040160405180910390fd5b610c997f8ade13fdf2d1c442f9016b626b7df511cf7e6789ab36ecdfe29e3ff064cdd72460001b61299e565b610cc57fc87d76c0b6aebc7bca1e7e151beb48a4650c065b60809c0b026ff5779543c3e860001b61299e565b610cf17f56025bc471ea7a2d03e986ea8a4968b102ac0e34439d332844b6104faa032edb60001b61299e565b60405180604001604052808c81526020013373ffffffffffffffffffffffffffffffffffffffff16815250600160008f73ffffffffffffffffffffffffffffffffffffffff1673ffffffffffffffffffffffffffffffffffffffff16815260200190815260200160002060008e81526020019081526020016000206000820151816000015560208201518160010160006101000a81548173ffffffffffffffffffffffffffffffffffffffff021916908373ffffffffffffffffffffffffffffffffffffffff160217905550905050610dec7fe2f4a6c42e354e70397f7f30c6bd36652aef5a766c3c653b431c2d6f5459532b60001b61299e565b610e187f5298cd259fbfd9adae362df2ae934c65be205c120ff9f16ecf3f4324b13828ed60001b61299e565b8b8d73ffffffffffffffffffffffffffffffffffffffff163373ffffffffffffffffffffffffffffffffffffffff167fd547e933094f12a9159076970143ebe73234e64480317844b0dcb36117116de48e604051610e769190612a7a565b60405180910390a450505050505050505050505050565b818133610ebc7f8d487aebfe920b1b14f9a6b3ad856608d6d72debf0dde958b3062c37d01544de60001b61299e565b610ee87f98660ed6db4aa03b4bc58e81064599b86ecac1a13d18bbe061e4f5dcebd690c460001b61299e565b610f147f95ba6fc28c15c0202559f2c926446ae6e05fa23e02f6a27f33e03416119001e860001b61299e565b6000839050610f457f0bf5e21f8ae568549908641cf09bae6a7f720838de7f128d3a33b38b371ddcef60001b61299e565b610f717ff7e8190802353d83ffdbe86714f986da05ef6e16354d7a9dbc9ce30ba5acf3f360001b61299e565b60008173ffffffffffffffffffffffffffffffffffffffff16636352211e856040518263ffffffff1660e01b8152600401610fac9190612a7a565b60206040518083038186803b158015610fc457600080fd5b505afa158015610fd8573d6000803e3d6000fd5b505050506040513d601f19601f82011682018060405250810190610ffc9190612c09565b905061102a7fd29043f3603c24acda5fe42185f8c7cde57f0b19fcdcb7e5cdbdfb4e5338760660001b61299e565b6110567f38af511f00f85b44768ec2fdf41e396aa1ec0a0146025d3c69a72c21971b9eae60001b61299e565b8073ffffffffffffffffffffffffffffffffffffffff168373ffffffffffffffffffffffffffffffffffffffff1614611113576110b57fbfa2064f977c58a33e61324c2bc1024fba1bc6a9a9a4b0f310a80f0f0cb945b660001b61299e565b6110e17f3f47f080d38b1c2117cc16b02a39b39eef4aa1f4064167e79adec5a40673444d60001b61299e565b6040517f94953b6000000000000000000000000000000000000000000000000000000000815260040160405180910390fd5b61113f7f2504e51202c54c11d97144fcf56974e080f2e2f5dfc21faa4bbe11f08ea43ec860001b61299e565b61116b7f5a7c0eba47a7add64cdab858e2de08225b43edc3477efac427bccfd37ced338260001b61299e565b86866111997fae97fb8c2988aebd6738f6203bd36e59e4c7d14fb978f64c735df5eb67530e8960001b61299e565b6111c57f954915a478202b6bdacb3c415aaa0aba9b3154c4d62a52206cb4c11e3fff001e60001b61299e565b6111f17feb360237795fdcec15db74341953984f07bc476d79b16f8f3ea74d58c0db9d6360001b61299e565b6000600160008473ffffffffffffffffffffffffffffffffffffffff1673ffffffffffffffffffffffffffffffffffffffff1681526020019081526020016000206000838152602001908152602001600020604051806040016040529081600082015481526020016001820160009054906101000a900473ffffffffffffffffffffffffffffffffffffffff1673ffffffffffffffffffffffffffffffffffffffff1673ffffffffffffffffffffffffffffffffffffffff168152505090506112dc7f930e5a533d71d2dee3a129e8b26ac5dc6ee0fd4762ce7ac583a724bb9b77af9c60001b61299e565b6113087f8847eec46e5076ddf8ffda46ff09d7e89e331ae017fb6c2888dad2e6d565890060001b61299e565b60008160000151116113ab576113407f8cf1841579221626201c04d5ecbb798bce508a67587711ba4e1e078d64db3acf60001b61299e565b61136c7fd3dd6190005b971bafb54f296db58723b861a71d11d2ffab03c7295d2489757760001b61299e565b82826040517f6d350f220000000000000000000000000000000000000000000000000000000081526004016113a2929190612bcb565b60405180910390fd5b6113d77f9a2a63c21196a9ac6cc7c691e660842c475802a149478d18cee8903e4d42a0ae60001b61299e565b6114037f2c7562fdb3b5cb97d4ccc6e4b9843722b28e5a02b2bec96e148cd6cd6c52e69460001b61299e565b61142f7ffe73f1663c212a96e15d71bde33a0a3f65041d0464474e283a6451667359e31a60001b61299e565b61145b7f7c2f843ef7902b67e0dec9b65eec587190f279eb48373840979cd9853bb895cd60001b61299e565b600160008b73ffffffffffffffffffffffffffffffffffffffff1673ffffffffffffffffffffffffffffffffffffffff16815260200190815260200160002060008a81526020019081526020016000206000808201600090556001820160006101000a81549073ffffffffffffffffffffffffffffffffffffffff021916905550506115097f7d82a8423291cf348cea1075b0cdb1803738b58154f1c9a55d652fbf52480db360001b61299e565b6115357fb27cfa988ff21c08c6aaecba61d8fa1099a6cfdc2ad593a425106b0380a9ab7760001b61299e565b888a73ffffffffffffffffffffffffffffffffffffffff163373ffffffffffffffffffffffffffffffffffffffff167f9ba1a3cb55ce8d63d072a886f94d2a744f50cddf82128e897d0661f5ec62315860405160405180910390a450505050505050505050565b6115c87fd1e67f36e4982a79752caafc50df0a6d95d02628b8d5726055c3f9dabe33640d60001b61299e565b6115f47fe229b787d74192cf78e88df65ffbf23c4320884f3b38ef474ca71db714707c6760001b61299e565b6116207faec1ae575591dad4d5cba3cdb20d395e541cb07d625af36d8aff01d439f5227160001b61299e565b6000600260003373ffffffffffffffffffffffffffffffffffffffff1673ffffffffffffffffffffffffffffffffffffffff1681526020019081526020016000205490506116907f27f32301b275734e38b90b6caa8e285f42c787dc2c0f0bafd6ed6d333a4866a660001b61299e565b6116bc7fe0d749a77865d0a9e9d5845902646373c7ef00b2da2e501042339c1f0bf68eaa60001b61299e565b6000811161174e576116f07fc36836aaad4078c85260229a8345e118347f2293e5b3bc0e8670ddc25a3f8f1060001b61299e565b61171c7f9614ec30cefd92c3a042089bb21f89f412d0c04b7d9a98137f47285f16af868660001b61299e565b6040517f668a7c4200000000000000000000000000000000000000000000000000000000815260040160405180910390fd5b61177a7f6872aa21a7cf7845e194ead90976d52e65ccc7b68c7837b823e20d4d75376cc360001b61299e565b6117a67f919597d30958a5f5bf01bc8987f69455dbf1507d72dc2a7ff5586c582711fd0460001b61299e565b6117d27f81749af4306975c912c9d61a1de808640e15f018cf36c8bd500f0f6d1e6e3d3560001b61299e565b6000600260003373ffffffffffffffffffffffffffffffffffffffff1673ffffffffffffffffffffffffffffffffffffffff168152602001908152602001600020819055506118437fd448c90e72ac9c867ff2bf3064923d51d06e0c1d819244a2eb93b455e9d390cd60001b61299e565b61186f7ff84c4407e889b74d45ed6a39843c594570b4eaa9ba0f7105e41a726bf3c4a70060001b61299e565b60003373ffffffffffffffffffffffffffffffffffffffff168260405161189590612c67565b60006040518083038185875af1925050503d80600081146118d2576040519150601f19603f3d011682016040523d82523d6000602084013e6118d7565b606091505b505090506119077f4334df2bd93172432b4501d54f8fefbc656fcd313e7e8533fe5b23bcac997b0d60001b61299e565b6119337fdc575f802a6ac94a5c4d81dcf52b3e42efb540ccd2b53320a57780d05bcd47cb60001b61299e565b806119c2576119647fa0b18e3fc3a45dc4d37f3ad16733f9b53707bbf49e7fa78f1ea30d7bcd568afa60001b61299e565b6119907fa25534b75a5aef246fd818a0ed363a7a3463e72c6700593dba55ba01759e37b360001b61299e565b6040517fa05884ba00000000000000000000000000000000000000000000000000000000815260040160405180910390fd5b6119ee7f0eac518f04fff107a2cc032d60d730ad43693581a8ae6fc15e2632223d0451e760001b61299e565b5050565b60026000541415611a38576040517f08c379a0000000000000000000000000000000000000000000000000000000008152600401611a2f90612cd9565b60405180910390fd5b60026000819055508181611a6e7fae97fb8c2988aebd6738f6203bd36e59e4c7d14fb978f64c735df5eb67530e8960001b61299e565b611a9a7f954915a478202b6bdacb3c415aaa0aba9b3154c4d62a52206cb4c11e3fff001e60001b61299e565b611ac67feb360237795fdcec15db74341953984f07bc476d79b16f8f3ea74d58c0db9d6360001b61299e565b6000600160008473ffffffffffffffffffffffffffffffffffffffff1673ffffffffffffffffffffffffffffffffffffffff1681526020019081526020016000206000838152602001908152602001600020604051806040016040529081600082015481526020016001820160009054906101000a900473ffffffffffffffffffffffffffffffffffffffff1673ffffffffffffffffffffffffffffffffffffffff1673ffffffffffffffffffffffffffffffffffffffff16815250509050611bb17f930e5a533d71d2dee3a129e8b26ac5dc6ee0fd4762ce7ac583a724bb9b77af9c60001b61299e565b611bdd7f8847eec46e5076ddf8ffda46ff09d7e89e331ae017fb6c2888dad2e6d565890060001b61299e565b6000816000015111611c8057611c157f8cf1841579221626201c04d5ecbb798bce508a67587711ba4e1e078d64db3acf60001b61299e565b611c417fd3dd6190005b971bafb54f296db58723b861a71d11d2ffab03c7295d2489757760001b61299e565b82826040517f6d350f22000000000000000000000000000000000000000000000000000000008152600401611c77929190612bcb565b60405180910390fd5b611cac7f9a2a63c21196a9ac6cc7c691e660842c475802a149478d18cee8903e4d42a0ae60001b61299e565b611cd87f2c7562fdb3b5cb97d4ccc6e4b9843722b28e5a02b2bec96e148cd6cd6c52e69460001b61299e565b611d047f5574e711b8c28c47ede15a027da487f3685fee3ab8ae6b08441ddba44b7fa4ee60001b61299e565b611d307f45e1f2c072a453cf27156920791745b5a615d606fcad78cd12a98a4583f498b360001b61299e565b611d5c7fa363e72b1e9b85078a5bb143267512c24d6e134876a385142ebdbb16dc950f5160001b61299e565b6000600160008773ffffffffffffffffffffffffffffffffffffffff1673ffffffffffffffffffffffffffffffffffffffff1681526020019081526020016000206000868152602001908152602001600020604051806040016040529081600082015481526020016001820160009054906101000a900473ffffffffffffffffffffffffffffffffffffffff1673ffffffffffffffffffffffffffffffffffffffff1673ffffffffffffffffffffffffffffffffffffffff16815250509050611e477f06e9ac81d7a0fa4a19483a9a0a0e9b8f8cdbd1cb8ef7e0a951505b98cef9d72760001b61299e565b611e737f98a53fee8e07508b00e995a0901657323bd730b8f01f44603eaa0c9f8eb0b08e60001b61299e565b8060000151341015611f1c57611eab7f0eb2426eda7f3a11d8dce801dc137964b52e93b1fca4cd32f0139ac9534e7ac960001b61299e565b611ed77f28627aeb647417fafe72857b7765600e4f2058305282d6b9908e1ab9475466ae60001b61299e565b858582600001516040517f817ce9f1000000000000000000000000000000000000000000000000000000008152600401611f1393929190612cf9565b60405180910390fd5b611f487ff4890dc2ed54901dd73690c686ff472234ce33ea267494fcf05a3df00fd73c2e60001b61299e565b611f747f020c150e62533d10cd0701c9108c70c07509b6dc29ae04a0248352247f8f9fef60001b61299e565b611fa07f0333c03ae1231a4c7897764d2251b40635abbe57735ed127aa86ebea26b6d16560001b61299e565b3460026000836020015173ffffffffffffffffffffffffffffffffffffffff1673ffffffffffffffffffffffffffffffffffffffff16815260200190815260200160002054611fef9190612d5f565b60026000836020015173ffffffffffffffffffffffffffffffffffffffff1673ffffffffffffffffffffffffffffffffffffffff168152602001908152602001600020819055506120627fb68ff3b5c6454bb4eef528ce65cd46c2cd96bae686abc5758fa01301e10893fa60001b61299e565b600160008773ffffffffffffffffffffffffffffffffffffffff1673ffffffffffffffffffffffffffffffffffffffff16815260200190815260200160002060008681526020019081526020016000206000808201600090556001820160006101000a81549073ffffffffffffffffffffffffffffffffffffffff021916905550506121107fb75fd4fb215e26428c8508e331aa3539014dcb67cebdf1d355b5933ee6a3139860001b61299e565b61213c7f12755f1f5ec4b388fc75df068bf2b086d82a8006676c3c9fb5f155018d86708c60001b61299e565b8573ffffffffffffffffffffffffffffffffffffffff166342842e0e826020015133886040518463ffffffff1660e01b815260040161217d93929190612db5565b600060405180830381600087803b15801561219757600080fd5b505af11580156121ab573d6000803e3d6000fd5b505050506121db7f07af838696e9285c175d6151d17c7ad6a31469febc5e436d90032da4db76c2ab60001b61299e565b6122077fbd1743a8b24aea13358879f64aa948738fc4c908c19faa63192b3f8a8169db7060001b61299e565b848673ffffffffffffffffffffffffffffffffffffffff163373ffffffffffffffffffffffffffffffffffffffff167f263223b1dd81e51054a4e6f791d45a4a1ddb4aadcd93a2dfd892615c3fdac18784600001516040516122699190612a7a565b60405180910390a45050505060016000819055505050565b82826122af7fae97fb8c2988aebd6738f6203bd36e59e4c7d14fb978f64c735df5eb67530e8960001b61299e565b6122db7f954915a478202b6bdacb3c415aaa0aba9b3154c4d62a52206cb4c11e3fff001e60001b61299e565b6123077feb360237795fdcec15db74341953984f07bc476d79b16f8f3ea74d58c0db9d6360001b61299e565b6000600160008473ffffffffffffffffffffffffffffffffffffffff1673ffffffffffffffffffffffffffffffffffffffff1681526020019081526020016000206000838152602001908152602001600020604051806040016040529081600082015481526020016001820160009054906101000a900473ffffffffffffffffffffffffffffffffffffffff1673ffffffffffffffffffffffffffffffffffffffff1673ffffffffffffffffffffffffffffffffffffffff168152505090506123f27f930e5a533d71d2dee3a129e8b26ac5dc6ee0fd4762ce7ac583a724bb9b77af9c60001b61299e565b61241e7f8847eec46e5076ddf8ffda46ff09d7e89e331ae017fb6c2888dad2e6d565890060001b61299e565b60008160000151116124c1576124567f8cf1841579221626201c04d5ecbb798bce508a67587711ba4e1e078d64db3acf60001b61299e565b6124827fd3dd6190005b971bafb54f296db58723b861a71d11d2ffab03c7295d2489757760001b61299e565b82826040517f6d350f220000000000000000000000000000000000000000000000000000000081526004016124b8929190612bcb565b60405180910390fd5b6124ed7f9a2a63c21196a9ac6cc7c691e660842c475802a149478d18cee8903e4d42a0ae60001b61299e565b6125197f2c7562fdb3b5cb97d4ccc6e4b9843722b28e5a02b2bec96e148cd6cd6c52e69460001b61299e565b8585336125487f8d487aebfe920b1b14f9a6b3ad856608d6d72debf0dde958b3062c37d01544de60001b61299e565b6125747f98660ed6db4aa03b4bc58e81064599b86ecac1a13d18bbe061e4f5dcebd690c460001b61299e565b6125a07f95ba6fc28c15c0202559f2c926446ae6e05fa23e02f6a27f33e03416119001e860001b61299e565b60008390506125d17f0bf5e21f8ae568549908641cf09bae6a7f720838de7f128d3a33b38b371ddcef60001b61299e565b6125fd7ff7e8190802353d83ffdbe86714f986da05ef6e16354d7a9dbc9ce30ba5acf3f360001b61299e565b60008173ffffffffffffffffffffffffffffffffffffffff16636352211e856040518263ffffffff1660e01b81526004016126389190612a7a565b60206040518083038186803b15801561265057600080fd5b505afa158015612664573d6000803e3d6000fd5b505050506040513d601f19601f820116820180604052508101906126889190612c09565b90506126b67fd29043f3603c24acda5fe42185f8c7cde57f0b19fcdcb7e5cdbdfb4e5338760660001b61299e565b6126e27f38af511f00f85b44768ec2fdf41e396aa1ec0a0146025d3c69a72c21971b9eae60001b61299e565b8073ffffffffffffffffffffffffffffffffffffffff168373ffffffffffffffffffffffffffffffffffffffff161461279f576127417fbfa2064f977c58a33e61324c2bc1024fba1bc6a9a9a4b0f310a80f0f0cb945b660001b61299e565b61276d7f3f47f080d38b1c2117cc16b02a39b39eef4aa1f4064167e79adec5a40673444d60001b61299e565b6040517f94953b6000000000000000000000000000000000000000000000000000000000815260040160405180910390fd5b6127cb7f2504e51202c54c11d97144fcf56974e080f2e2f5dfc21faa4bbe11f08ea43ec860001b61299e565b6127f77f5a7c0eba47a7add64cdab858e2de08225b43edc3477efac427bccfd37ced338260001b61299e565b6128237f6dd14c7da10393b610c05ab511c23bccfb3b65554782cf0cc6d693c17257982e60001b61299e565b61284f7f2ab95895dfd71494a638c310d56c7b41fca9d3f4938baf7ecc839f0f0a16bb6b60001b61299e565b61287b7f1c6589fff342747493ee1638c1b8805b7b4e18d551c1148d0e0dc0a75d8d12b060001b61299e565b88600160008d73ffffffffffffffffffffffffffffffffffffffff1673ffffffffffffffffffffffffffffffffffffffff16815260200190815260200160002060008c8152602001908152602001600020600001819055506128ff7f05a510333320c5d40aa0e4eecaad384a082fec2c10d8b3ac0581d3ff7653477060001b61299e565b61292b7fdfa06b61473a5888da94fe8deb3e5cff49c79ec3f659091133a80834c39242b160001b61299e565b898b73ffffffffffffffffffffffffffffffffffffffff163373ffffffffffffffffffffffffffffffffffffffff167fd547e933094f12a9159076970143ebe73234e64480317844b0dcb36117116de48c6040516129899190612a7a565b60405180910390a45050505050505050505050565b50565b604051806040016040528060008152602001600073ffffffffffffffffffffffffffffffffffffffff1681525090565b600080fd5b600073ffffffffffffffffffffffffffffffffffffffff82169050919050565b6000612a01826129d6565b9050919050565b612a11816129f6565b8114612a1c57600080fd5b50565b600081359050612a2e81612a08565b92915050565b600060208284031215612a4a57612a496129d1565b5b6000612a5884828501612a1f565b91505092915050565b6000819050919050565b612a7481612a61565b82525050565b6000602082019050612a8f6000830184612a6b565b92915050565b612a9e81612a61565b8114612aa957600080fd5b50565b600081359050612abb81612a95565b92915050565b60008060408385031215612ad857612ad76129d1565b5b6000612ae685828601612a1f565b9250506020612af785828601612aac565b9150509250929050565b612b0a81612a61565b82525050565b612b19816129f6565b82525050565b604082016000820151612b356000850182612b01565b506020820151612b486020850182612b10565b50505050565b6000604082019050612b636000830184612b1f565b92915050565b600080600060608486031215612b8257612b816129d1565b5b6000612b9086828701612a1f565b9350506020612ba186828701612aac565b9250506040612bb286828701612aac565b9150509250925092565b612bc5816129f6565b82525050565b6000604082019050612be06000830185612bbc565b612bed6020830184612a6b565b9392505050565b600081519050612c0381612a08565b92915050565b600060208284031215612c1f57612c1e6129d1565b5b6000612c2d84828501612bf4565b91505092915050565b600081905092915050565b50565b6000612c51600083612c36565b9150612c5c82612c41565b600082019050919050565b6000612c7282612c44565b9150819050919050565b600082825260208201905092915050565b7f5265656e7472616e637947756172643a207265656e7472616e742063616c6c00600082015250565b6000612cc3601f83612c7c565b9150612cce82612c8d565b602082019050919050565b60006020820190508181036000830152612cf281612cb6565b9050919050565b6000606082019050612d0e6000830186612bbc565b612d1b6020830185612a6b565b612d286040830184612a6b565b949350505050565b7f4e487b7100000000000000000000000000000000000000000000000000000000600052601160045260246000fd5b6000612d6a82612a61565b9150612d7583612a61565b9250827fffffffffffffffffffffffffffffffffffffffffffffffffffffffffffffffff03821115612daa57612da9612d30565b5b828201905092915050565b6000606082019050612dca6000830186612bbc565b612dd76020830185612bbc565b612de46040830184612a6b565b94935050505056fea264697066735822122037d3345bbac527a06eabe894f39a6cca33fa7d258f1d98da7a871794e4aeb52c64736f6c63430008080033",
          "opcodes": "PUSH1 0x80 PUSH1 0x40 MSTORE CALLVALUE DUP1 ISZERO PUSH2 0x10 JUMPI PUSH1 0x0 DUP1 REVERT JUMPDEST POP PUSH1 0x1 PUSH1 0x0 DUP2 SWAP1 SSTORE POP PUSH2 0x2E22 DUP1 PUSH2 0x28 PUSH1 0x0 CODECOPY PUSH1 0x0 RETURN INVALID PUSH1 0x80 PUSH1 0x40 MSTORE PUSH1 0x4 CALLDATASIZE LT PUSH2 0x70 JUMPI PUSH1 0x0 CALLDATALOAD PUSH1 0xE0 SHR DUP1 PUSH4 0x8F6D40D2 GT PUSH2 0x4E JUMPI DUP1 PUSH4 0x8F6D40D2 EQ PUSH2 0x118 JUMPI DUP1 PUSH4 0x9038E693 EQ PUSH2 0x141 JUMPI DUP1 PUSH4 0x9F37092A EQ PUSH2 0x158 JUMPI DUP1 PUSH4 0xF772ADF1 EQ PUSH2 0x174 JUMPI PUSH2 0x70 JUMP JUMPDEST DUP1 PUSH4 0x30CFEDA9 EQ PUSH2 0x75 JUMPI DUP1 PUSH4 0x88700D1C EQ PUSH2 0xB2 JUMPI DUP1 PUSH4 0x89BFD38F EQ PUSH2 0xEF JUMPI JUMPDEST PUSH1 0x0 DUP1 REVERT JUMPDEST CALLVALUE DUP1 ISZERO PUSH2 0x81 JUMPI PUSH1 0x0 DUP1 REVERT JUMPDEST POP PUSH2 0x9C PUSH1 0x4 DUP1 CALLDATASIZE SUB DUP2 ADD SWAP1 PUSH2 0x97 SWAP2 SWAP1 PUSH2 0x2A34 JUMP JUMPDEST PUSH2 0x19D JUMP JUMPDEST PUSH1 0x40 MLOAD PUSH2 0xA9 SWAP2 SWAP1 PUSH2 0x2A7A JUMP JUMPDEST PUSH1 0x40 MLOAD DUP1 SWAP2 SUB SWAP1 RETURN JUMPDEST CALLVALUE DUP1 ISZERO PUSH2 0xBE JUMPI PUSH1 0x0 DUP1 REVERT JUMPDEST POP PUSH2 0xD9 PUSH1 0x4 DUP1 CALLDATASIZE SUB DUP2 ADD SWAP1 PUSH2 0xD4 SWAP2 SWAP1 PUSH2 0x2AC1 JUMP JUMPDEST PUSH2 0x26A JUMP JUMPDEST PUSH1 0x40 MLOAD PUSH2 0xE6 SWAP2 SWAP1 PUSH2 0x2B4E JUMP JUMPDEST PUSH1 0x40 MLOAD DUP1 SWAP2 SUB SWAP1 RETURN JUMPDEST CALLVALUE DUP1 ISZERO PUSH2 0xFB JUMPI PUSH1 0x0 DUP1 REVERT JUMPDEST POP PUSH2 0x116 PUSH1 0x4 DUP1 CALLDATASIZE SUB DUP2 ADD SWAP1 PUSH2 0x111 SWAP2 SWAP1 PUSH2 0x2B69 JUMP JUMPDEST PUSH2 0x3B9 JUMP JUMPDEST STOP JUMPDEST CALLVALUE DUP1 ISZERO PUSH2 0x124 JUMPI PUSH1 0x0 DUP1 REVERT JUMPDEST POP PUSH2 0x13F PUSH1 0x4 DUP1 CALLDATASIZE SUB DUP2 ADD SWAP1 PUSH2 0x13A SWAP2 SWAP1 PUSH2 0x2AC1 JUMP JUMPDEST PUSH2 0xE8D JUMP JUMPDEST STOP JUMPDEST CALLVALUE DUP1 ISZERO PUSH2 0x14D JUMPI PUSH1 0x0 DUP1 REVERT JUMPDEST POP PUSH2 0x156 PUSH2 0x159C JUMP JUMPDEST STOP JUMPDEST PUSH2 0x172 PUSH1 0x4 DUP1 CALLDATASIZE SUB DUP2 ADD SWAP1 PUSH2 0x16D SWAP2 SWAP1 PUSH2 0x2AC1 JUMP JUMPDEST PUSH2 0x19F2 JUMP JUMPDEST STOP JUMPDEST CALLVALUE DUP1 ISZERO PUSH2 0x180 JUMPI PUSH1 0x0 DUP1 REVERT JUMPDEST POP PUSH2 0x19B PUSH1 0x4 DUP1 CALLDATASIZE SUB DUP2 ADD SWAP1 PUSH2 0x196 SWAP2 SWAP1 PUSH2 0x2B69 JUMP JUMPDEST PUSH2 0x2281 JUMP JUMPDEST STOP JUMPDEST PUSH1 0x0 PUSH2 0x1CB PUSH32 0x2B56BBCB13B302B9772E079CD1B03FF7EB876728B7BE7E626D9944F353C2B1AB PUSH1 0x0 SHL PUSH2 0x299E JUMP JUMPDEST PUSH2 0x1F7 PUSH32 0xB8432A8A2AC81B97EA396963A0094351B1F8BCDEB981C33FA8ECC88CF8BAC33 PUSH1 0x0 SHL PUSH2 0x299E JUMP JUMPDEST PUSH2 0x223 PUSH32 0xB967A14250ED3761CDA0B5039E59FFF9BD9C0C6EFE8F89A50D5EAAA444979BA6 PUSH1 0x0 SHL PUSH2 0x299E JUMP JUMPDEST PUSH1 0x2 PUSH1 0x0 DUP4 PUSH20 0xFFFFFFFFFFFFFFFFFFFFFFFFFFFFFFFFFFFFFFFF AND PUSH20 0xFFFFFFFFFFFFFFFFFFFFFFFFFFFFFFFFFFFFFFFF AND DUP2 MSTORE PUSH1 0x20 ADD SWAP1 DUP2 MSTORE PUSH1 0x20 ADD PUSH1 0x0 KECCAK256 SLOAD SWAP1 POP SWAP2 SWAP1 POP JUMP JUMPDEST PUSH2 0x272 PUSH2 0x29A1 JUMP JUMPDEST PUSH2 0x29E PUSH32 0x72E1516487DACBDE4ACDDD5BF69DB6A55E669B2E53CDB33067241F68A6D21A35 PUSH1 0x0 SHL PUSH2 0x299E JUMP JUMPDEST PUSH2 0x2CA PUSH32 0x28175F3E9033F5772B1F725CBE8774B0EFCFBEDB158C32FDC4058F19FC1EE19B PUSH1 0x0 SHL PUSH2 0x299E JUMP JUMPDEST PUSH2 0x2F6 PUSH32 0x9FD0B97B962606751E959333B6413EC238AAA04813F13E9D399885C559960CB0 PUSH1 0x0 SHL PUSH2 0x299E JUMP JUMPDEST PUSH1 0x1 PUSH1 0x0 DUP5 PUSH20 0xFFFFFFFFFFFFFFFFFFFFFFFFFFFFFFFFFFFFFFFF AND PUSH20 0xFFFFFFFFFFFFFFFFFFFFFFFFFFFFFFFFFFFFFFFF AND DUP2 MSTORE PUSH1 0x20 ADD SWAP1 DUP2 MSTORE PUSH1 0x20 ADD PUSH1 0x0 KECCAK256 PUSH1 0x0 DUP4 DUP2 MSTORE PUSH1 0x20 ADD SWAP1 DUP2 MSTORE PUSH1 0x20 ADD PUSH1 0x0 KECCAK256 PUSH1 0x40 MLOAD DUP1 PUSH1 0x40 ADD PUSH1 0x40 MSTORE SWAP1 DUP2 PUSH1 0x0 DUP3 ADD SLOAD DUP2 MSTORE PUSH1 0x20 ADD PUSH1 0x1 DUP3 ADD PUSH1 0x0 SWAP1 SLOAD SWAP1 PUSH2 0x100 EXP SWAP1 DIV PUSH20 0xFFFFFFFFFFFFFFFFFFFFFFFFFFFFFFFFFFFFFFFF AND PUSH20 0xFFFFFFFFFFFFFFFFFFFFFFFFFFFFFFFFFFFFFFFF AND PUSH20 0xFFFFFFFFFFFFFFFFFFFFFFFFFFFFFFFFFFFFFFFF AND DUP2 MSTORE POP POP SWAP1 POP SWAP3 SWAP2 POP POP JUMP JUMPDEST DUP3 DUP3 CALLER PUSH2 0x3E8 PUSH32 0x42A0CBEB3EC4AD3B5F7A347643E465AA377E794F527D34BC86848B11D07C6173 PUSH1 0x0 SHL PUSH2 0x299E JUMP JUMPDEST PUSH2 0x414 PUSH32 0x28284ABE0B3EA146724AA149586E91B76A3D701F82F285FFECB6AE2E9FE9BA0E PUSH1 0x0 SHL PUSH2 0x299E JUMP JUMPDEST PUSH2 0x440 PUSH32 0x5A631151367A299D1EBD5654744D8E9CBC5C2028F13D8E4FBE2BA58CB761B251 PUSH1 0x0 SHL PUSH2 0x299E JUMP JUMPDEST PUSH1 0x0 PUSH1 0x1 PUSH1 0x0 DUP6 PUSH20 0xFFFFFFFFFFFFFFFFFFFFFFFFFFFFFFFFFFFFFFFF AND PUSH20 0xFFFFFFFFFFFFFFFFFFFFFFFFFFFFFFFFFFFFFFFF AND DUP2 MSTORE PUSH1 0x20 ADD SWAP1 DUP2 MSTORE PUSH1 0x20 ADD PUSH1 0x0 KECCAK256 PUSH1 0x0 DUP5 DUP2 MSTORE PUSH1 0x20 ADD SWAP1 DUP2 MSTORE PUSH1 0x20 ADD PUSH1 0x0 KECCAK256 PUSH1 0x40 MLOAD DUP1 PUSH1 0x40 ADD PUSH1 0x40 MSTORE SWAP1 DUP2 PUSH1 0x0 DUP3 ADD SLOAD DUP2 MSTORE PUSH1 0x20 ADD PUSH1 0x1 DUP3 ADD PUSH1 0x0 SWAP1 SLOAD SWAP1 PUSH2 0x100 EXP SWAP1 DIV PUSH20 0xFFFFFFFFFFFFFFFFFFFFFFFFFFFFFFFFFFFFFFFF AND PUSH20 0xFFFFFFFFFFFFFFFFFFFFFFFFFFFFFFFFFFFFFFFF AND PUSH20 0xFFFFFFFFFFFFFFFFFFFFFFFFFFFFFFFFFFFFFFFF AND DUP2 MSTORE POP POP SWAP1 POP PUSH2 0x52B PUSH32 0x5ACA2B980312F38503F75A732A5B2CA9D6E6297FE7FC7FBF4B3CE7AC9E1E9CDF PUSH1 0x0 SHL PUSH2 0x299E JUMP JUMPDEST PUSH2 0x557 PUSH32 0x30E59C8C28A922B240FDBF722A156C383FC95CBB25DAADE95078701146CA7C65 PUSH1 0x0 SHL PUSH2 0x299E JUMP JUMPDEST PUSH1 0x0 DUP2 PUSH1 0x0 ADD MLOAD GT ISZERO PUSH2 0x5FB JUMPI PUSH2 0x590 PUSH32 0x59B43FBBA85BC84FCEC17F565AF0567569C961A26281A25DF4155A2CD06971EA PUSH1 0x0 SHL PUSH2 0x299E JUMP JUMPDEST PUSH2 0x5BC PUSH32 0xF5B4ACDDFE78B12FF5A765013BF08087B7025D844F39F66D1DD8F08CA778F53 PUSH1 0x0 SHL PUSH2 0x299E JUMP JUMPDEST DUP4 DUP4 PUSH1 0x40 MLOAD PUSH32 0xC2F0D70900000000000000000000000000000000000000000000000000000000 DUP2 MSTORE PUSH1 0x4 ADD PUSH2 0x5F2 SWAP3 SWAP2 SWAP1 PUSH2 0x2BCB JUMP JUMPDEST PUSH1 0x40 MLOAD DUP1 SWAP2 SUB SWAP1 REVERT JUMPDEST PUSH2 0x627 PUSH32 0x53D48F14F2C6112D8935BBBB4626853A02FAFB5C6B50E76F35C5B8B5BCE76F21 PUSH1 0x0 SHL PUSH2 0x299E JUMP JUMPDEST PUSH2 0x653 PUSH32 0x10DF3FF66AE2455B78A0A9E4CDCD353EE155FD0AE7171E1DB537565B4495FC6E PUSH1 0x0 SHL PUSH2 0x299E JUMP JUMPDEST DUP7 DUP7 CALLER PUSH2 0x682 PUSH32 0x8D487AEBFE920B1B14F9A6B3AD856608D6D72DEBF0DDE958B3062C37D01544DE PUSH1 0x0 SHL PUSH2 0x299E JUMP JUMPDEST PUSH2 0x6AE PUSH32 0x98660ED6DB4AA03B4BC58E81064599B86ECAC1A13D18BBE061E4F5DCEBD690C4 PUSH1 0x0 SHL PUSH2 0x299E JUMP JUMPDEST PUSH2 0x6DA PUSH32 0x95BA6FC28C15C0202559F2C926446AE6E05FA23E02F6A27F33E03416119001E8 PUSH1 0x0 SHL PUSH2 0x299E JUMP JUMPDEST PUSH1 0x0 DUP4 SWAP1 POP PUSH2 0x70B PUSH32 0xBF5E21F8AE568549908641CF09BAE6A7F720838DE7F128D3A33B38B371DDCEF PUSH1 0x0 SHL PUSH2 0x299E JUMP JUMPDEST PUSH2 0x737 PUSH32 0xF7E8190802353D83FFDBE86714F986DA05EF6E16354D7A9DBC9CE30BA5ACF3F3 PUSH1 0x0 SHL PUSH2 0x299E JUMP JUMPDEST PUSH1 0x0 DUP2 PUSH20 0xFFFFFFFFFFFFFFFFFFFFFFFFFFFFFFFFFFFFFFFF AND PUSH4 0x6352211E DUP6 PUSH1 0x40 MLOAD DUP3 PUSH4 0xFFFFFFFF AND PUSH1 0xE0 SHL DUP2 MSTORE PUSH1 0x4 ADD PUSH2 0x772 SWAP2 SWAP1 PUSH2 0x2A7A JUMP JUMPDEST PUSH1 0x20 PUSH1 0x40 MLOAD DUP1 DUP4 SUB DUP2 DUP7 DUP1 EXTCODESIZE ISZERO DUP1 ISZERO PUSH2 0x78A JUMPI PUSH1 0x0 DUP1 REVERT JUMPDEST POP GAS STATICCALL ISZERO DUP1 ISZERO PUSH2 0x79E JUMPI RETURNDATASIZE PUSH1 0x0 DUP1 RETURNDATACOPY RETURNDATASIZE PUSH1 0x0 REVERT JUMPDEST POP POP POP POP PUSH1 0x40 MLOAD RETURNDATASIZE PUSH1 0x1F NOT PUSH1 0x1F DUP3 ADD AND DUP3 ADD DUP1 PUSH1 0x40 MSTORE POP DUP2 ADD SWAP1 PUSH2 0x7C2 SWAP2 SWAP1 PUSH2 0x2C09 JUMP JUMPDEST SWAP1 POP PUSH2 0x7F0 PUSH32 0xD29043F3603C24ACDA5FE42185F8C7CDE57F0B19FCDCB7E5CDBDFB4E53387606 PUSH1 0x0 SHL PUSH2 0x299E JUMP JUMPDEST PUSH2 0x81C PUSH32 0x38AF511F00F85B44768EC2FDF41E396AA1EC0A0146025D3C69A72C21971B9EAE PUSH1 0x0 SHL PUSH2 0x299E JUMP JUMPDEST DUP1 PUSH20 0xFFFFFFFFFFFFFFFFFFFFFFFFFFFFFFFFFFFFFFFF AND DUP4 PUSH20 0xFFFFFFFFFFFFFFFFFFFFFFFFFFFFFFFFFFFFFFFF AND EQ PUSH2 0x8D9 JUMPI PUSH2 0x87B PUSH32 0xBFA2064F977C58A33E61324C2BC1024FBA1BC6A9A9A4B0F310A80F0F0CB945B6 PUSH1 0x0 SHL PUSH2 0x299E JUMP JUMPDEST PUSH2 0x8A7 PUSH32 0x3F47F080D38B1C2117CC16B02A39B39EEF4AA1F4064167E79ADEC5A40673444D PUSH1 0x0 SHL PUSH2 0x299E JUMP JUMPDEST PUSH1 0x40 MLOAD PUSH32 0x94953B6000000000000000000000000000000000000000000000000000000000 DUP2 MSTORE PUSH1 0x4 ADD PUSH1 0x40 MLOAD DUP1 SWAP2 SUB SWAP1 REVERT JUMPDEST PUSH2 0x905 PUSH32 0x2504E51202C54C11D97144FCF56974E080F2E2F5DFC21FAA4BBE11F08EA43EC8 PUSH1 0x0 SHL PUSH2 0x299E JUMP JUMPDEST PUSH2 0x931 PUSH32 0x5A7C0EBA47A7ADD64CDAB858E2DE08225B43EDC3477EFAC427BCCFD37CED3382 PUSH1 0x0 SHL PUSH2 0x299E JUMP JUMPDEST PUSH2 0x95D PUSH32 0xAC56C6EC363F23C6C4B48218EC475077A451E9EE0B0F2793532907BF50BE1246 PUSH1 0x0 SHL PUSH2 0x299E JUMP JUMPDEST PUSH2 0x989 PUSH32 0x631ADEADB05D13AB163C42BBF93F4441EF5767DB64B87FB7286C8D72511989EF PUSH1 0x0 SHL PUSH2 0x299E JUMP JUMPDEST PUSH2 0x9B5 PUSH32 0x35F0F881375EB628C75A933EC5BB1E483526CA33C6E1CECD42A3F9626B5F3F03 PUSH1 0x0 SHL PUSH2 0x299E JUMP JUMPDEST PUSH1 0x0 DUP11 GT PUSH2 0xA47 JUMPI PUSH2 0x9E9 PUSH32 0x88F47AB3DF624E63648EB013F488668665188DB9B576D4A97DFEDD029A1D3AE6 PUSH1 0x0 SHL PUSH2 0x299E JUMP JUMPDEST PUSH2 0xA15 PUSH32 0x819CD97442683C4C0ED40732BD39170EC46EDBDC7725DE506D9413FFB18A1A38 PUSH1 0x0 SHL PUSH2 0x299E JUMP JUMPDEST PUSH1 0x40 MLOAD PUSH32 0x96D7ECF00000000000000000000000000000000000000000000000000000000 DUP2 MSTORE PUSH1 0x4 ADD PUSH1 0x40 MLOAD DUP1 SWAP2 SUB SWAP1 REVERT JUMPDEST PUSH2 0xA73 PUSH32 0xBCE23F0A0642B79D8C282821F983C01C03A16744F58D34210921CCCF8703D43B PUSH1 0x0 SHL PUSH2 0x299E JUMP JUMPDEST PUSH2 0xA9F PUSH32 0x1F2820838BC2AB17116ECB9923194DAFC86A6AD83EA131266546D3EBCC4C939D PUSH1 0x0 SHL PUSH2 0x299E JUMP JUMPDEST PUSH2 0xACB PUSH32 0xBAE7F60C7307337CDD239DCA96737AAE0EDA24E9458C14F7CDACCDE4D0668408 PUSH1 0x0 SHL PUSH2 0x299E JUMP JUMPDEST PUSH1 0x0 DUP13 SWAP1 POP PUSH2 0xAFC PUSH32 0x6F2B526EA0EDBF37A89E3E0855A0BAB20333C7433081D2F3E69ADE0CB42F808B PUSH1 0x0 SHL PUSH2 0x299E JUMP JUMPDEST PUSH2 0xB28 PUSH32 0x6756CCB51876B8C8925EC229B72701C647813A64EFA48E140DC45591991B88A0 PUSH1 0x0 SHL PUSH2 0x299E JUMP JUMPDEST ADDRESS PUSH20 0xFFFFFFFFFFFFFFFFFFFFFFFFFFFFFFFFFFFFFFFF AND DUP2 PUSH20 0xFFFFFFFFFFFFFFFFFFFFFFFFFFFFFFFFFFFFFFFF AND PUSH4 0x81812FC DUP15 PUSH1 0x40 MLOAD DUP3 PUSH4 0xFFFFFFFF AND PUSH1 0xE0 SHL DUP2 MSTORE PUSH1 0x4 ADD PUSH2 0xB78 SWAP2 SWAP1 PUSH2 0x2A7A JUMP JUMPDEST PUSH1 0x20 PUSH1 0x40 MLOAD DUP1 DUP4 SUB DUP2 DUP7 DUP1 EXTCODESIZE ISZERO DUP1 ISZERO PUSH2 0xB90 JUMPI PUSH1 0x0 DUP1 REVERT JUMPDEST POP GAS STATICCALL ISZERO DUP1 ISZERO PUSH2 0xBA4 JUMPI RETURNDATASIZE PUSH1 0x0 DUP1 RETURNDATACOPY RETURNDATASIZE PUSH1 0x0 REVERT JUMPDEST POP POP POP POP PUSH1 0x40 MLOAD RETURNDATASIZE PUSH1 0x1F NOT PUSH1 0x1F DUP3 ADD AND DUP3 ADD DUP1 PUSH1 0x40 MSTORE POP DUP2 ADD SWAP1 PUSH2 0xBC8 SWAP2 SWAP1 PUSH2 0x2C09 JUMP JUMPDEST PUSH20 0xFFFFFFFFFFFFFFFFFFFFFFFFFFFFFFFFFFFFFFFF AND EQ PUSH2 0xC6D JUMPI PUSH2 0xC0F PUSH32 0xCF931D24421302A73D1C4E3761C0A27124D6EC9D6E2890B07833A365137D319A PUSH1 0x0 SHL PUSH2 0x299E JUMP JUMPDEST PUSH2 0xC3B PUSH32 0x11AA20773C6A716DB8CC8D3914EC3C6A21E3B8658016810CB81E7505412FA9BA PUSH1 0x0 SHL PUSH2 0x299E JUMP JUMPDEST PUSH1 0x40 MLOAD PUSH32 0x13E7D28D00000000000000000000000000000000000000000000000000000000 DUP2 MSTORE PUSH1 0x4 ADD PUSH1 0x40 MLOAD DUP1 SWAP2 SUB SWAP1 REVERT JUMPDEST PUSH2 0xC99 PUSH32 0x8ADE13FDF2D1C442F9016B626B7DF511CF7E6789AB36ECDFE29E3FF064CDD724 PUSH1 0x0 SHL PUSH2 0x299E JUMP JUMPDEST PUSH2 0xCC5 PUSH32 0xC87D76C0B6AEBC7BCA1E7E151BEB48A4650C065B60809C0B026FF5779543C3E8 PUSH1 0x0 SHL PUSH2 0x299E JUMP JUMPDEST PUSH2 0xCF1 PUSH32 0x56025BC471EA7A2D03E986EA8A4968B102AC0E34439D332844B6104FAA032EDB PUSH1 0x0 SHL PUSH2 0x299E JUMP JUMPDEST PUSH1 0x40 MLOAD DUP1 PUSH1 0x40 ADD PUSH1 0x40 MSTORE DUP1 DUP13 DUP2 MSTORE PUSH1 0x20 ADD CALLER PUSH20 0xFFFFFFFFFFFFFFFFFFFFFFFFFFFFFFFFFFFFFFFF AND DUP2 MSTORE POP PUSH1 0x1 PUSH1 0x0 DUP16 PUSH20 0xFFFFFFFFFFFFFFFFFFFFFFFFFFFFFFFFFFFFFFFF AND PUSH20 0xFFFFFFFFFFFFFFFFFFFFFFFFFFFFFFFFFFFFFFFF AND DUP2 MSTORE PUSH1 0x20 ADD SWAP1 DUP2 MSTORE PUSH1 0x20 ADD PUSH1 0x0 KECCAK256 PUSH1 0x0 DUP15 DUP2 MSTORE PUSH1 0x20 ADD SWAP1 DUP2 MSTORE PUSH1 0x20 ADD PUSH1 0x0 KECCAK256 PUSH1 0x0 DUP3 ADD MLOAD DUP2 PUSH1 0x0 ADD SSTORE PUSH1 0x20 DUP3 ADD MLOAD DUP2 PUSH1 0x1 ADD PUSH1 0x0 PUSH2 0x100 EXP DUP2 SLOAD DUP2 PUSH20 0xFFFFFFFFFFFFFFFFFFFFFFFFFFFFFFFFFFFFFFFF MUL NOT AND SWAP1 DUP4 PUSH20 0xFFFFFFFFFFFFFFFFFFFFFFFFFFFFFFFFFFFFFFFF AND MUL OR SWAP1 SSTORE POP SWAP1 POP POP PUSH2 0xDEC PUSH32 0xE2F4A6C42E354E70397F7F30C6BD36652AEF5A766C3C653B431C2D6F5459532B PUSH1 0x0 SHL PUSH2 0x299E JUMP JUMPDEST PUSH2 0xE18 PUSH32 0x5298CD259FBFD9ADAE362DF2AE934C65BE205C120FF9F16ECF3F4324B13828ED PUSH1 0x0 SHL PUSH2 0x299E JUMP JUMPDEST DUP12 DUP14 PUSH20 0xFFFFFFFFFFFFFFFFFFFFFFFFFFFFFFFFFFFFFFFF AND CALLER PUSH20 0xFFFFFFFFFFFFFFFFFFFFFFFFFFFFFFFFFFFFFFFF AND PUSH32 0xD547E933094F12A9159076970143EBE73234E64480317844B0DCB36117116DE4 DUP15 PUSH1 0x40 MLOAD PUSH2 0xE76 SWAP2 SWAP1 PUSH2 0x2A7A JUMP JUMPDEST PUSH1 0x40 MLOAD DUP1 SWAP2 SUB SWAP1 LOG4 POP POP POP POP POP POP POP POP POP POP POP POP POP JUMP JUMPDEST DUP2 DUP2 CALLER PUSH2 0xEBC PUSH32 0x8D487AEBFE920B1B14F9A6B3AD856608D6D72DEBF0DDE958B3062C37D01544DE PUSH1 0x0 SHL PUSH2 0x299E JUMP JUMPDEST PUSH2 0xEE8 PUSH32 0x98660ED6DB4AA03B4BC58E81064599B86ECAC1A13D18BBE061E4F5DCEBD690C4 PUSH1 0x0 SHL PUSH2 0x299E JUMP JUMPDEST PUSH2 0xF14 PUSH32 0x95BA6FC28C15C0202559F2C926446AE6E05FA23E02F6A27F33E03416119001E8 PUSH1 0x0 SHL PUSH2 0x299E JUMP JUMPDEST PUSH1 0x0 DUP4 SWAP1 POP PUSH2 0xF45 PUSH32 0xBF5E21F8AE568549908641CF09BAE6A7F720838DE7F128D3A33B38B371DDCEF PUSH1 0x0 SHL PUSH2 0x299E JUMP JUMPDEST PUSH2 0xF71 PUSH32 0xF7E8190802353D83FFDBE86714F986DA05EF6E16354D7A9DBC9CE30BA5ACF3F3 PUSH1 0x0 SHL PUSH2 0x299E JUMP JUMPDEST PUSH1 0x0 DUP2 PUSH20 0xFFFFFFFFFFFFFFFFFFFFFFFFFFFFFFFFFFFFFFFF AND PUSH4 0x6352211E DUP6 PUSH1 0x40 MLOAD DUP3 PUSH4 0xFFFFFFFF AND PUSH1 0xE0 SHL DUP2 MSTORE PUSH1 0x4 ADD PUSH2 0xFAC SWAP2 SWAP1 PUSH2 0x2A7A JUMP JUMPDEST PUSH1 0x20 PUSH1 0x40 MLOAD DUP1 DUP4 SUB DUP2 DUP7 DUP1 EXTCODESIZE ISZERO DUP1 ISZERO PUSH2 0xFC4 JUMPI PUSH1 0x0 DUP1 REVERT JUMPDEST POP GAS STATICCALL ISZERO DUP1 ISZERO PUSH2 0xFD8 JUMPI RETURNDATASIZE PUSH1 0x0 DUP1 RETURNDATACOPY RETURNDATASIZE PUSH1 0x0 REVERT JUMPDEST POP POP POP POP PUSH1 0x40 MLOAD RETURNDATASIZE PUSH1 0x1F NOT PUSH1 0x1F DUP3 ADD AND DUP3 ADD DUP1 PUSH1 0x40 MSTORE POP DUP2 ADD SWAP1 PUSH2 0xFFC SWAP2 SWAP1 PUSH2 0x2C09 JUMP JUMPDEST SWAP1 POP PUSH2 0x102A PUSH32 0xD29043F3603C24ACDA5FE42185F8C7CDE57F0B19FCDCB7E5CDBDFB4E53387606 PUSH1 0x0 SHL PUSH2 0x299E JUMP JUMPDEST PUSH2 0x1056 PUSH32 0x38AF511F00F85B44768EC2FDF41E396AA1EC0A0146025D3C69A72C21971B9EAE PUSH1 0x0 SHL PUSH2 0x299E JUMP JUMPDEST DUP1 PUSH20 0xFFFFFFFFFFFFFFFFFFFFFFFFFFFFFFFFFFFFFFFF AND DUP4 PUSH20 0xFFFFFFFFFFFFFFFFFFFFFFFFFFFFFFFFFFFFFFFF AND EQ PUSH2 0x1113 JUMPI PUSH2 0x10B5 PUSH32 0xBFA2064F977C58A33E61324C2BC1024FBA1BC6A9A9A4B0F310A80F0F0CB945B6 PUSH1 0x0 SHL PUSH2 0x299E JUMP JUMPDEST PUSH2 0x10E1 PUSH32 0x3F47F080D38B1C2117CC16B02A39B39EEF4AA1F4064167E79ADEC5A40673444D PUSH1 0x0 SHL PUSH2 0x299E JUMP JUMPDEST PUSH1 0x40 MLOAD PUSH32 0x94953B6000000000000000000000000000000000000000000000000000000000 DUP2 MSTORE PUSH1 0x4 ADD PUSH1 0x40 MLOAD DUP1 SWAP2 SUB SWAP1 REVERT JUMPDEST PUSH2 0x113F PUSH32 0x2504E51202C54C11D97144FCF56974E080F2E2F5DFC21FAA4BBE11F08EA43EC8 PUSH1 0x0 SHL PUSH2 0x299E JUMP JUMPDEST PUSH2 0x116B PUSH32 0x5A7C0EBA47A7ADD64CDAB858E2DE08225B43EDC3477EFAC427BCCFD37CED3382 PUSH1 0x0 SHL PUSH2 0x299E JUMP JUMPDEST DUP7 DUP7 PUSH2 0x1199 PUSH32 0xAE97FB8C2988AEBD6738F6203BD36E59E4C7D14FB978F64C735DF5EB67530E89 PUSH1 0x0 SHL PUSH2 0x299E JUMP JUMPDEST PUSH2 0x11C5 PUSH32 0x954915A478202B6BDACB3C415AAA0ABA9B3154C4D62A52206CB4C11E3FFF001E PUSH1 0x0 SHL PUSH2 0x299E JUMP JUMPDEST PUSH2 0x11F1 PUSH32 0xEB360237795FDCEC15DB74341953984F07BC476D79B16F8F3EA74D58C0DB9D63 PUSH1 0x0 SHL PUSH2 0x299E JUMP JUMPDEST PUSH1 0x0 PUSH1 0x1 PUSH1 0x0 DUP5 PUSH20 0xFFFFFFFFFFFFFFFFFFFFFFFFFFFFFFFFFFFFFFFF AND PUSH20 0xFFFFFFFFFFFFFFFFFFFFFFFFFFFFFFFFFFFFFFFF AND DUP2 MSTORE PUSH1 0x20 ADD SWAP1 DUP2 MSTORE PUSH1 0x20 ADD PUSH1 0x0 KECCAK256 PUSH1 0x0 DUP4 DUP2 MSTORE PUSH1 0x20 ADD SWAP1 DUP2 MSTORE PUSH1 0x20 ADD PUSH1 0x0 KECCAK256 PUSH1 0x40 MLOAD DUP1 PUSH1 0x40 ADD PUSH1 0x40 MSTORE SWAP1 DUP2 PUSH1 0x0 DUP3 ADD SLOAD DUP2 MSTORE PUSH1 0x20 ADD PUSH1 0x1 DUP3 ADD PUSH1 0x0 SWAP1 SLOAD SWAP1 PUSH2 0x100 EXP SWAP1 DIV PUSH20 0xFFFFFFFFFFFFFFFFFFFFFFFFFFFFFFFFFFFFFFFF AND PUSH20 0xFFFFFFFFFFFFFFFFFFFFFFFFFFFFFFFFFFFFFFFF AND PUSH20 0xFFFFFFFFFFFFFFFFFFFFFFFFFFFFFFFFFFFFFFFF AND DUP2 MSTORE POP POP SWAP1 POP PUSH2 0x12DC PUSH32 0x930E5A533D71D2DEE3A129E8B26AC5DC6EE0FD4762CE7AC583A724BB9B77AF9C PUSH1 0x0 SHL PUSH2 0x299E JUMP JUMPDEST PUSH2 0x1308 PUSH32 0x8847EEC46E5076DDF8FFDA46FF09D7E89E331AE017FB6C2888DAD2E6D5658900 PUSH1 0x0 SHL PUSH2 0x299E JUMP JUMPDEST PUSH1 0x0 DUP2 PUSH1 0x0 ADD MLOAD GT PUSH2 0x13AB JUMPI PUSH2 0x1340 PUSH32 0x8CF1841579221626201C04D5ECBB798BCE508A67587711BA4E1E078D64DB3ACF PUSH1 0x0 SHL PUSH2 0x299E JUMP JUMPDEST PUSH2 0x136C PUSH32 0xD3DD6190005B971BAFB54F296DB58723B861A71D11D2FFAB03C7295D24897577 PUSH1 0x0 SHL PUSH2 0x299E JUMP JUMPDEST DUP3 DUP3 PUSH1 0x40 MLOAD PUSH32 0x6D350F2200000000000000000000000000000000000000000000000000000000 DUP2 MSTORE PUSH1 0x4 ADD PUSH2 0x13A2 SWAP3 SWAP2 SWAP1 PUSH2 0x2BCB JUMP JUMPDEST PUSH1 0x40 MLOAD DUP1 SWAP2 SUB SWAP1 REVERT JUMPDEST PUSH2 0x13D7 PUSH32 0x9A2A63C21196A9AC6CC7C691E660842C475802A149478D18CEE8903E4D42A0AE PUSH1 0x0 SHL PUSH2 0x299E JUMP JUMPDEST PUSH2 0x1403 PUSH32 0x2C7562FDB3B5CB97D4CCC6E4B9843722B28E5A02B2BEC96E148CD6CD6C52E694 PUSH1 0x0 SHL PUSH2 0x299E JUMP JUMPDEST PUSH2 0x142F PUSH32 0xFE73F1663C212A96E15D71BDE33A0A3F65041D0464474E283A6451667359E31A PUSH1 0x0 SHL PUSH2 0x299E JUMP JUMPDEST PUSH2 0x145B PUSH32 0x7C2F843EF7902B67E0DEC9B65EEC587190F279EB48373840979CD9853BB895CD PUSH1 0x0 SHL PUSH2 0x299E JUMP JUMPDEST PUSH1 0x1 PUSH1 0x0 DUP12 PUSH20 0xFFFFFFFFFFFFFFFFFFFFFFFFFFFFFFFFFFFFFFFF AND PUSH20 0xFFFFFFFFFFFFFFFFFFFFFFFFFFFFFFFFFFFFFFFF AND DUP2 MSTORE PUSH1 0x20 ADD SWAP1 DUP2 MSTORE PUSH1 0x20 ADD PUSH1 0x0 KECCAK256 PUSH1 0x0 DUP11 DUP2 MSTORE PUSH1 0x20 ADD SWAP1 DUP2 MSTORE PUSH1 0x20 ADD PUSH1 0x0 KECCAK256 PUSH1 0x0 DUP1 DUP3 ADD PUSH1 0x0 SWAP1 SSTORE PUSH1 0x1 DUP3 ADD PUSH1 0x0 PUSH2 0x100 EXP DUP2 SLOAD SWAP1 PUSH20 0xFFFFFFFFFFFFFFFFFFFFFFFFFFFFFFFFFFFFFFFF MUL NOT AND SWAP1 SSTORE POP POP PUSH2 0x1509 PUSH32 0x7D82A8423291CF348CEA1075B0CDB1803738B58154F1C9A55D652FBF52480DB3 PUSH1 0x0 SHL PUSH2 0x299E JUMP JUMPDEST PUSH2 0x1535 PUSH32 0xB27CFA988FF21C08C6AAECBA61D8FA1099A6CFDC2AD593A425106B0380A9AB77 PUSH1 0x0 SHL PUSH2 0x299E JUMP JUMPDEST DUP9 DUP11 PUSH20 0xFFFFFFFFFFFFFFFFFFFFFFFFFFFFFFFFFFFFFFFF AND CALLER PUSH20 0xFFFFFFFFFFFFFFFFFFFFFFFFFFFFFFFFFFFFFFFF AND PUSH32 0x9BA1A3CB55CE8D63D072A886F94D2A744F50CDDF82128E897D0661F5EC623158 PUSH1 0x40 MLOAD PUSH1 0x40 MLOAD DUP1 SWAP2 SUB SWAP1 LOG4 POP POP POP POP POP POP POP POP POP POP JUMP JUMPDEST PUSH2 0x15C8 PUSH32 0xD1E67F36E4982A79752CAAFC50DF0A6D95D02628B8D5726055C3F9DABE33640D PUSH1 0x0 SHL PUSH2 0x299E JUMP JUMPDEST PUSH2 0x15F4 PUSH32 0xE229B787D74192CF78E88DF65FFBF23C4320884F3B38EF474CA71DB714707C67 PUSH1 0x0 SHL PUSH2 0x299E JUMP JUMPDEST PUSH2 0x1620 PUSH32 0xAEC1AE575591DAD4D5CBA3CDB20D395E541CB07D625AF36D8AFF01D439F52271 PUSH1 0x0 SHL PUSH2 0x299E JUMP JUMPDEST PUSH1 0x0 PUSH1 0x2 PUSH1 0x0 CALLER PUSH20 0xFFFFFFFFFFFFFFFFFFFFFFFFFFFFFFFFFFFFFFFF AND PUSH20 0xFFFFFFFFFFFFFFFFFFFFFFFFFFFFFFFFFFFFFFFF AND DUP2 MSTORE PUSH1 0x20 ADD SWAP1 DUP2 MSTORE PUSH1 0x20 ADD PUSH1 0x0 KECCAK256 SLOAD SWAP1 POP PUSH2 0x1690 PUSH32 0x27F32301B275734E38B90B6CAA8E285F42C787DC2C0F0BAFD6ED6D333A4866A6 PUSH1 0x0 SHL PUSH2 0x299E JUMP JUMPDEST PUSH2 0x16BC PUSH32 0xE0D749A77865D0A9E9D5845902646373C7EF00B2DA2E501042339C1F0BF68EAA PUSH1 0x0 SHL PUSH2 0x299E JUMP JUMPDEST PUSH1 0x0 DUP2 GT PUSH2 0x174E JUMPI PUSH2 0x16F0 PUSH32 0xC36836AAAD4078C85260229A8345E118347F2293E5B3BC0E8670DDC25A3F8F10 PUSH1 0x0 SHL PUSH2 0x299E JUMP JUMPDEST PUSH2 0x171C PUSH32 0x9614EC30CEFD92C3A042089BB21F89F412D0C04B7D9A98137F47285F16AF8686 PUSH1 0x0 SHL PUSH2 0x299E JUMP JUMPDEST PUSH1 0x40 MLOAD PUSH32 0x668A7C4200000000000000000000000000000000000000000000000000000000 DUP2 MSTORE PUSH1 0x4 ADD PUSH1 0x40 MLOAD DUP1 SWAP2 SUB SWAP1 REVERT JUMPDEST PUSH2 0x177A PUSH32 0x6872AA21A7CF7845E194EAD90976D52E65CCC7B68C7837B823E20D4D75376CC3 PUSH1 0x0 SHL PUSH2 0x299E JUMP JUMPDEST PUSH2 0x17A6 PUSH32 0x919597D30958A5F5BF01BC8987F69455DBF1507D72DC2A7FF5586C582711FD04 PUSH1 0x0 SHL PUSH2 0x299E JUMP JUMPDEST PUSH2 0x17D2 PUSH32 0x81749AF4306975C912C9D61A1DE808640E15F018CF36C8BD500F0F6D1E6E3D35 PUSH1 0x0 SHL PUSH2 0x299E JUMP JUMPDEST PUSH1 0x0 PUSH1 0x2 PUSH1 0x0 CALLER PUSH20 0xFFFFFFFFFFFFFFFFFFFFFFFFFFFFFFFFFFFFFFFF AND PUSH20 0xFFFFFFFFFFFFFFFFFFFFFFFFFFFFFFFFFFFFFFFF AND DUP2 MSTORE PUSH1 0x20 ADD SWAP1 DUP2 MSTORE PUSH1 0x20 ADD PUSH1 0x0 KECCAK256 DUP2 SWAP1 SSTORE POP PUSH2 0x1843 PUSH32 0xD448C90E72AC9C867FF2BF3064923D51D06E0C1D819244A2EB93B455E9D390CD PUSH1 0x0 SHL PUSH2 0x299E JUMP JUMPDEST PUSH2 0x186F PUSH32 0xF84C4407E889B74D45ED6A39843C594570B4EAA9BA0F7105E41A726BF3C4A700 PUSH1 0x0 SHL PUSH2 0x299E JUMP JUMPDEST PUSH1 0x0 CALLER PUSH20 0xFFFFFFFFFFFFFFFFFFFFFFFFFFFFFFFFFFFFFFFF AND DUP3 PUSH1 0x40 MLOAD PUSH2 0x1895 SWAP1 PUSH2 0x2C67 JUMP JUMPDEST PUSH1 0x0 PUSH1 0x40 MLOAD DUP1 DUP4 SUB DUP2 DUP6 DUP8 GAS CALL SWAP3 POP POP POP RETURNDATASIZE DUP1 PUSH1 0x0 DUP2 EQ PUSH2 0x18D2 JUMPI PUSH1 0x40 MLOAD SWAP2 POP PUSH1 0x1F NOT PUSH1 0x3F RETURNDATASIZE ADD AND DUP3 ADD PUSH1 0x40 MSTORE RETURNDATASIZE DUP3 MSTORE RETURNDATASIZE PUSH1 0x0 PUSH1 0x20 DUP5 ADD RETURNDATACOPY PUSH2 0x18D7 JUMP JUMPDEST PUSH1 0x60 SWAP2 POP JUMPDEST POP POP SWAP1 POP PUSH2 0x1907 PUSH32 0x4334DF2BD93172432B4501D54F8FEFBC656FCD313E7E8533FE5B23BCAC997B0D PUSH1 0x0 SHL PUSH2 0x299E JUMP JUMPDEST PUSH2 0x1933 PUSH32 0xDC575F802A6AC94A5C4D81DCF52B3E42EFB540CCD2B53320A57780D05BCD47CB PUSH1 0x0 SHL PUSH2 0x299E JUMP JUMPDEST DUP1 PUSH2 0x19C2 JUMPI PUSH2 0x1964 PUSH32 0xA0B18E3FC3A45DC4D37F3AD16733F9B53707BBF49E7FA78F1EA30D7BCD568AFA PUSH1 0x0 SHL PUSH2 0x299E JUMP JUMPDEST PUSH2 0x1990 PUSH32 0xA25534B75A5AEF246FD818A0ED363A7A3463E72C6700593DBA55BA01759E37B3 PUSH1 0x0 SHL PUSH2 0x299E JUMP JUMPDEST PUSH1 0x40 MLOAD PUSH32 0xA05884BA00000000000000000000000000000000000000000000000000000000 DUP2 MSTORE PUSH1 0x4 ADD PUSH1 0x40 MLOAD DUP1 SWAP2 SUB SWAP1 REVERT JUMPDEST PUSH2 0x19EE PUSH32 0xEAC518F04FFF107A2CC032D60D730AD43693581A8AE6FC15E2632223D0451E7 PUSH1 0x0 SHL PUSH2 0x299E JUMP JUMPDEST POP POP JUMP JUMPDEST PUSH1 0x2 PUSH1 0x0 SLOAD EQ ISZERO PUSH2 0x1A38 JUMPI PUSH1 0x40 MLOAD PUSH32 0x8C379A000000000000000000000000000000000000000000000000000000000 DUP2 MSTORE PUSH1 0x4 ADD PUSH2 0x1A2F SWAP1 PUSH2 0x2CD9 JUMP JUMPDEST PUSH1 0x40 MLOAD DUP1 SWAP2 SUB SWAP1 REVERT JUMPDEST PUSH1 0x2 PUSH1 0x0 DUP2 SWAP1 SSTORE POP DUP2 DUP2 PUSH2 0x1A6E PUSH32 0xAE97FB8C2988AEBD6738F6203BD36E59E4C7D14FB978F64C735DF5EB67530E89 PUSH1 0x0 SHL PUSH2 0x299E JUMP JUMPDEST PUSH2 0x1A9A PUSH32 0x954915A478202B6BDACB3C415AAA0ABA9B3154C4D62A52206CB4C11E3FFF001E PUSH1 0x0 SHL PUSH2 0x299E JUMP JUMPDEST PUSH2 0x1AC6 PUSH32 0xEB360237795FDCEC15DB74341953984F07BC476D79B16F8F3EA74D58C0DB9D63 PUSH1 0x0 SHL PUSH2 0x299E JUMP JUMPDEST PUSH1 0x0 PUSH1 0x1 PUSH1 0x0 DUP5 PUSH20 0xFFFFFFFFFFFFFFFFFFFFFFFFFFFFFFFFFFFFFFFF AND PUSH20 0xFFFFFFFFFFFFFFFFFFFFFFFFFFFFFFFFFFFFFFFF AND DUP2 MSTORE PUSH1 0x20 ADD SWAP1 DUP2 MSTORE PUSH1 0x20 ADD PUSH1 0x0 KECCAK256 PUSH1 0x0 DUP4 DUP2 MSTORE PUSH1 0x20 ADD SWAP1 DUP2 MSTORE PUSH1 0x20 ADD PUSH1 0x0 KECCAK256 PUSH1 0x40 MLOAD DUP1 PUSH1 0x40 ADD PUSH1 0x40 MSTORE SWAP1 DUP2 PUSH1 0x0 DUP3 ADD SLOAD DUP2 MSTORE PUSH1 0x20 ADD PUSH1 0x1 DUP3 ADD PUSH1 0x0 SWAP1 SLOAD SWAP1 PUSH2 0x100 EXP SWAP1 DIV PUSH20 0xFFFFFFFFFFFFFFFFFFFFFFFFFFFFFFFFFFFFFFFF AND PUSH20 0xFFFFFFFFFFFFFFFFFFFFFFFFFFFFFFFFFFFFFFFF AND PUSH20 0xFFFFFFFFFFFFFFFFFFFFFFFFFFFFFFFFFFFFFFFF AND DUP2 MSTORE POP POP SWAP1 POP PUSH2 0x1BB1 PUSH32 0x930E5A533D71D2DEE3A129E8B26AC5DC6EE0FD4762CE7AC583A724BB9B77AF9C PUSH1 0x0 SHL PUSH2 0x299E JUMP JUMPDEST PUSH2 0x1BDD PUSH32 0x8847EEC46E5076DDF8FFDA46FF09D7E89E331AE017FB6C2888DAD2E6D5658900 PUSH1 0x0 SHL PUSH2 0x299E JUMP JUMPDEST PUSH1 0x0 DUP2 PUSH1 0x0 ADD MLOAD GT PUSH2 0x1C80 JUMPI PUSH2 0x1C15 PUSH32 0x8CF1841579221626201C04D5ECBB798BCE508A67587711BA4E1E078D64DB3ACF PUSH1 0x0 SHL PUSH2 0x299E JUMP JUMPDEST PUSH2 0x1C41 PUSH32 0xD3DD6190005B971BAFB54F296DB58723B861A71D11D2FFAB03C7295D24897577 PUSH1 0x0 SHL PUSH2 0x299E JUMP JUMPDEST DUP3 DUP3 PUSH1 0x40 MLOAD PUSH32 0x6D350F2200000000000000000000000000000000000000000000000000000000 DUP2 MSTORE PUSH1 0x4 ADD PUSH2 0x1C77 SWAP3 SWAP2 SWAP1 PUSH2 0x2BCB JUMP JUMPDEST PUSH1 0x40 MLOAD DUP1 SWAP2 SUB SWAP1 REVERT JUMPDEST PUSH2 0x1CAC PUSH32 0x9A2A63C21196A9AC6CC7C691E660842C475802A149478D18CEE8903E4D42A0AE PUSH1 0x0 SHL PUSH2 0x299E JUMP JUMPDEST PUSH2 0x1CD8 PUSH32 0x2C7562FDB3B5CB97D4CCC6E4B9843722B28E5A02B2BEC96E148CD6CD6C52E694 PUSH1 0x0 SHL PUSH2 0x299E JUMP JUMPDEST PUSH2 0x1D04 PUSH32 0x5574E711B8C28C47EDE15A027DA487F3685FEE3AB8AE6B08441DDBA44B7FA4EE PUSH1 0x0 SHL PUSH2 0x299E JUMP JUMPDEST PUSH2 0x1D30 PUSH32 0x45E1F2C072A453CF27156920791745B5A615D606FCAD78CD12A98A4583F498B3 PUSH1 0x0 SHL PUSH2 0x299E JUMP JUMPDEST PUSH2 0x1D5C PUSH32 0xA363E72B1E9B85078A5BB143267512C24D6E134876A385142EBDBB16DC950F51 PUSH1 0x0 SHL PUSH2 0x299E JUMP JUMPDEST PUSH1 0x0 PUSH1 0x1 PUSH1 0x0 DUP8 PUSH20 0xFFFFFFFFFFFFFFFFFFFFFFFFFFFFFFFFFFFFFFFF AND PUSH20 0xFFFFFFFFFFFFFFFFFFFFFFFFFFFFFFFFFFFFFFFF AND DUP2 MSTORE PUSH1 0x20 ADD SWAP1 DUP2 MSTORE PUSH1 0x20 ADD PUSH1 0x0 KECCAK256 PUSH1 0x0 DUP7 DUP2 MSTORE PUSH1 0x20 ADD SWAP1 DUP2 MSTORE PUSH1 0x20 ADD PUSH1 0x0 KECCAK256 PUSH1 0x40 MLOAD DUP1 PUSH1 0x40 ADD PUSH1 0x40 MSTORE SWAP1 DUP2 PUSH1 0x0 DUP3 ADD SLOAD DUP2 MSTORE PUSH1 0x20 ADD PUSH1 0x1 DUP3 ADD PUSH1 0x0 SWAP1 SLOAD SWAP1 PUSH2 0x100 EXP SWAP1 DIV PUSH20 0xFFFFFFFFFFFFFFFFFFFFFFFFFFFFFFFFFFFFFFFF AND PUSH20 0xFFFFFFFFFFFFFFFFFFFFFFFFFFFFFFFFFFFFFFFF AND PUSH20 0xFFFFFFFFFFFFFFFFFFFFFFFFFFFFFFFFFFFFFFFF AND DUP2 MSTORE POP POP SWAP1 POP PUSH2 0x1E47 PUSH32 0x6E9AC81D7A0FA4A19483A9A0A0E9B8F8CDBD1CB8EF7E0A951505B98CEF9D727 PUSH1 0x0 SHL PUSH2 0x299E JUMP JUMPDEST PUSH2 0x1E73 PUSH32 0x98A53FEE8E07508B00E995A0901657323BD730B8F01F44603EAA0C9F8EB0B08E PUSH1 0x0 SHL PUSH2 0x299E JUMP JUMPDEST DUP1 PUSH1 0x0 ADD MLOAD CALLVALUE LT ISZERO PUSH2 0x1F1C JUMPI PUSH2 0x1EAB PUSH32 0xEB2426EDA7F3A11D8DCE801DC137964B52E93B1FCA4CD32F0139AC9534E7AC9 PUSH1 0x0 SHL PUSH2 0x299E JUMP JUMPDEST PUSH2 0x1ED7 PUSH32 0x28627AEB647417FAFE72857B7765600E4F2058305282D6B9908E1AB9475466AE PUSH1 0x0 SHL PUSH2 0x299E JUMP JUMPDEST DUP6 DUP6 DUP3 PUSH1 0x0 ADD MLOAD PUSH1 0x40 MLOAD PUSH32 0x817CE9F100000000000000000000000000000000000000000000000000000000 DUP2 MSTORE PUSH1 0x4 ADD PUSH2 0x1F13 SWAP4 SWAP3 SWAP2 SWAP1 PUSH2 0x2CF9 JUMP JUMPDEST PUSH1 0x40 MLOAD DUP1 SWAP2 SUB SWAP1 REVERT JUMPDEST PUSH2 0x1F48 PUSH32 0xF4890DC2ED54901DD73690C686FF472234CE33EA267494FCF05A3DF00FD73C2E PUSH1 0x0 SHL PUSH2 0x299E JUMP JUMPDEST PUSH2 0x1F74 PUSH32 0x20C150E62533D10CD0701C9108C70C07509B6DC29AE04A0248352247F8F9FEF PUSH1 0x0 SHL PUSH2 0x299E JUMP JUMPDEST PUSH2 0x1FA0 PUSH32 0x333C03AE1231A4C7897764D2251B40635ABBE57735ED127AA86EBEA26B6D165 PUSH1 0x0 SHL PUSH2 0x299E JUMP JUMPDEST CALLVALUE PUSH1 0x2 PUSH1 0x0 DUP4 PUSH1 0x20 ADD MLOAD PUSH20 0xFFFFFFFFFFFFFFFFFFFFFFFFFFFFFFFFFFFFFFFF AND PUSH20 0xFFFFFFFFFFFFFFFFFFFFFFFFFFFFFFFFFFFFFFFF AND DUP2 MSTORE PUSH1 0x20 ADD SWAP1 DUP2 MSTORE PUSH1 0x20 ADD PUSH1 0x0 KECCAK256 SLOAD PUSH2 0x1FEF SWAP2 SWAP1 PUSH2 0x2D5F JUMP JUMPDEST PUSH1 0x2 PUSH1 0x0 DUP4 PUSH1 0x20 ADD MLOAD PUSH20 0xFFFFFFFFFFFFFFFFFFFFFFFFFFFFFFFFFFFFFFFF AND PUSH20 0xFFFFFFFFFFFFFFFFFFFFFFFFFFFFFFFFFFFFFFFF AND DUP2 MSTORE PUSH1 0x20 ADD SWAP1 DUP2 MSTORE PUSH1 0x20 ADD PUSH1 0x0 KECCAK256 DUP2 SWAP1 SSTORE POP PUSH2 0x2062 PUSH32 0xB68FF3B5C6454BB4EEF528CE65CD46C2CD96BAE686ABC5758FA01301E10893FA PUSH1 0x0 SHL PUSH2 0x299E JUMP JUMPDEST PUSH1 0x1 PUSH1 0x0 DUP8 PUSH20 0xFFFFFFFFFFFFFFFFFFFFFFFFFFFFFFFFFFFFFFFF AND PUSH20 0xFFFFFFFFFFFFFFFFFFFFFFFFFFFFFFFFFFFFFFFF AND DUP2 MSTORE PUSH1 0x20 ADD SWAP1 DUP2 MSTORE PUSH1 0x20 ADD PUSH1 0x0 KECCAK256 PUSH1 0x0 DUP7 DUP2 MSTORE PUSH1 0x20 ADD SWAP1 DUP2 MSTORE PUSH1 0x20 ADD PUSH1 0x0 KECCAK256 PUSH1 0x0 DUP1 DUP3 ADD PUSH1 0x0 SWAP1 SSTORE PUSH1 0x1 DUP3 ADD PUSH1 0x0 PUSH2 0x100 EXP DUP2 SLOAD SWAP1 PUSH20 0xFFFFFFFFFFFFFFFFFFFFFFFFFFFFFFFFFFFFFFFF MUL NOT AND SWAP1 SSTORE POP POP PUSH2 0x2110 PUSH32 0xB75FD4FB215E26428C8508E331AA3539014DCB67CEBDF1D355B5933EE6A31398 PUSH1 0x0 SHL PUSH2 0x299E JUMP JUMPDEST PUSH2 0x213C PUSH32 0x12755F1F5EC4B388FC75DF068BF2B086D82A8006676C3C9FB5F155018D86708C PUSH1 0x0 SHL PUSH2 0x299E JUMP JUMPDEST DUP6 PUSH20 0xFFFFFFFFFFFFFFFFFFFFFFFFFFFFFFFFFFFFFFFF AND PUSH4 0x42842E0E DUP3 PUSH1 0x20 ADD MLOAD CALLER DUP9 PUSH1 0x40 MLOAD DUP5 PUSH4 0xFFFFFFFF AND PUSH1 0xE0 SHL DUP2 MSTORE PUSH1 0x4 ADD PUSH2 0x217D SWAP4 SWAP3 SWAP2 SWAP1 PUSH2 0x2DB5 JUMP JUMPDEST PUSH1 0x0 PUSH1 0x40 MLOAD DUP1 DUP4 SUB DUP2 PUSH1 0x0 DUP8 DUP1 EXTCODESIZE ISZERO DUP1 ISZERO PUSH2 0x2197 JUMPI PUSH1 0x0 DUP1 REVERT JUMPDEST POP GAS CALL ISZERO DUP1 ISZERO PUSH2 0x21AB JUMPI RETURNDATASIZE PUSH1 0x0 DUP1 RETURNDATACOPY RETURNDATASIZE PUSH1 0x0 REVERT JUMPDEST POP POP POP POP PUSH2 0x21DB PUSH32 0x7AF838696E9285C175D6151D17C7AD6A31469FEBC5E436D90032DA4DB76C2AB PUSH1 0x0 SHL PUSH2 0x299E JUMP JUMPDEST PUSH2 0x2207 PUSH32 0xBD1743A8B24AEA13358879F64AA948738FC4C908C19FAA63192B3F8A8169DB70 PUSH1 0x0 SHL PUSH2 0x299E JUMP JUMPDEST DUP5 DUP7 PUSH20 0xFFFFFFFFFFFFFFFFFFFFFFFFFFFFFFFFFFFFFFFF AND CALLER PUSH20 0xFFFFFFFFFFFFFFFFFFFFFFFFFFFFFFFFFFFFFFFF AND PUSH32 0x263223B1DD81E51054A4E6F791D45A4A1DDB4AADCD93A2DFD892615C3FDAC187 DUP5 PUSH1 0x0 ADD MLOAD PUSH1 0x40 MLOAD PUSH2 0x2269 SWAP2 SWAP1 PUSH2 0x2A7A JUMP JUMPDEST PUSH1 0x40 MLOAD DUP1 SWAP2 SUB SWAP1 LOG4 POP POP POP POP PUSH1 0x1 PUSH1 0x0 DUP2 SWAP1 SSTORE POP POP POP JUMP JUMPDEST DUP3 DUP3 PUSH2 0x22AF PUSH32 0xAE97FB8C2988AEBD6738F6203BD36E59E4C7D14FB978F64C735DF5EB67530E89 PUSH1 0x0 SHL PUSH2 0x299E JUMP JUMPDEST PUSH2 0x22DB PUSH32 0x954915A478202B6BDACB3C415AAA0ABA9B3154C4D62A52206CB4C11E3FFF001E PUSH1 0x0 SHL PUSH2 0x299E JUMP JUMPDEST PUSH2 0x2307 PUSH32 0xEB360237795FDCEC15DB74341953984F07BC476D79B16F8F3EA74D58C0DB9D63 PUSH1 0x0 SHL PUSH2 0x299E JUMP JUMPDEST PUSH1 0x0 PUSH1 0x1 PUSH1 0x0 DUP5 PUSH20 0xFFFFFFFFFFFFFFFFFFFFFFFFFFFFFFFFFFFFFFFF AND PUSH20 0xFFFFFFFFFFFFFFFFFFFFFFFFFFFFFFFFFFFFFFFF AND DUP2 MSTORE PUSH1 0x20 ADD SWAP1 DUP2 MSTORE PUSH1 0x20 ADD PUSH1 0x0 KECCAK256 PUSH1 0x0 DUP4 DUP2 MSTORE PUSH1 0x20 ADD SWAP1 DUP2 MSTORE PUSH1 0x20 ADD PUSH1 0x0 KECCAK256 PUSH1 0x40 MLOAD DUP1 PUSH1 0x40 ADD PUSH1 0x40 MSTORE SWAP1 DUP2 PUSH1 0x0 DUP3 ADD SLOAD DUP2 MSTORE PUSH1 0x20 ADD PUSH1 0x1 DUP3 ADD PUSH1 0x0 SWAP1 SLOAD SWAP1 PUSH2 0x100 EXP SWAP1 DIV PUSH20 0xFFFFFFFFFFFFFFFFFFFFFFFFFFFFFFFFFFFFFFFF AND PUSH20 0xFFFFFFFFFFFFFFFFFFFFFFFFFFFFFFFFFFFFFFFF AND PUSH20 0xFFFFFFFFFFFFFFFFFFFFFFFFFFFFFFFFFFFFFFFF AND DUP2 MSTORE POP POP SWAP1 POP PUSH2 0x23F2 PUSH32 0x930E5A533D71D2DEE3A129E8B26AC5DC6EE0FD4762CE7AC583A724BB9B77AF9C PUSH1 0x0 SHL PUSH2 0x299E JUMP JUMPDEST PUSH2 0x241E PUSH32 0x8847EEC46E5076DDF8FFDA46FF09D7E89E331AE017FB6C2888DAD2E6D5658900 PUSH1 0x0 SHL PUSH2 0x299E JUMP JUMPDEST PUSH1 0x0 DUP2 PUSH1 0x0 ADD MLOAD GT PUSH2 0x24C1 JUMPI PUSH2 0x2456 PUSH32 0x8CF1841579221626201C04D5ECBB798BCE508A67587711BA4E1E078D64DB3ACF PUSH1 0x0 SHL PUSH2 0x299E JUMP JUMPDEST PUSH2 0x2482 PUSH32 0xD3DD6190005B971BAFB54F296DB58723B861A71D11D2FFAB03C7295D24897577 PUSH1 0x0 SHL PUSH2 0x299E JUMP JUMPDEST DUP3 DUP3 PUSH1 0x40 MLOAD PUSH32 0x6D350F2200000000000000000000000000000000000000000000000000000000 DUP2 MSTORE PUSH1 0x4 ADD PUSH2 0x24B8 SWAP3 SWAP2 SWAP1 PUSH2 0x2BCB JUMP JUMPDEST PUSH1 0x40 MLOAD DUP1 SWAP2 SUB SWAP1 REVERT JUMPDEST PUSH2 0x24ED PUSH32 0x9A2A63C21196A9AC6CC7C691E660842C475802A149478D18CEE8903E4D42A0AE PUSH1 0x0 SHL PUSH2 0x299E JUMP JUMPDEST PUSH2 0x2519 PUSH32 0x2C7562FDB3B5CB97D4CCC6E4B9843722B28E5A02B2BEC96E148CD6CD6C52E694 PUSH1 0x0 SHL PUSH2 0x299E JUMP JUMPDEST DUP6 DUP6 CALLER PUSH2 0x2548 PUSH32 0x8D487AEBFE920B1B14F9A6B3AD856608D6D72DEBF0DDE958B3062C37D01544DE PUSH1 0x0 SHL PUSH2 0x299E JUMP JUMPDEST PUSH2 0x2574 PUSH32 0x98660ED6DB4AA03B4BC58E81064599B86ECAC1A13D18BBE061E4F5DCEBD690C4 PUSH1 0x0 SHL PUSH2 0x299E JUMP JUMPDEST PUSH2 0x25A0 PUSH32 0x95BA6FC28C15C0202559F2C926446AE6E05FA23E02F6A27F33E03416119001E8 PUSH1 0x0 SHL PUSH2 0x299E JUMP JUMPDEST PUSH1 0x0 DUP4 SWAP1 POP PUSH2 0x25D1 PUSH32 0xBF5E21F8AE568549908641CF09BAE6A7F720838DE7F128D3A33B38B371DDCEF PUSH1 0x0 SHL PUSH2 0x299E JUMP JUMPDEST PUSH2 0x25FD PUSH32 0xF7E8190802353D83FFDBE86714F986DA05EF6E16354D7A9DBC9CE30BA5ACF3F3 PUSH1 0x0 SHL PUSH2 0x299E JUMP JUMPDEST PUSH1 0x0 DUP2 PUSH20 0xFFFFFFFFFFFFFFFFFFFFFFFFFFFFFFFFFFFFFFFF AND PUSH4 0x6352211E DUP6 PUSH1 0x40 MLOAD DUP3 PUSH4 0xFFFFFFFF AND PUSH1 0xE0 SHL DUP2 MSTORE PUSH1 0x4 ADD PUSH2 0x2638 SWAP2 SWAP1 PUSH2 0x2A7A JUMP JUMPDEST PUSH1 0x20 PUSH1 0x40 MLOAD DUP1 DUP4 SUB DUP2 DUP7 DUP1 EXTCODESIZE ISZERO DUP1 ISZERO PUSH2 0x2650 JUMPI PUSH1 0x0 DUP1 REVERT JUMPDEST POP GAS STATICCALL ISZERO DUP1 ISZERO PUSH2 0x2664 JUMPI RETURNDATASIZE PUSH1 0x0 DUP1 RETURNDATACOPY RETURNDATASIZE PUSH1 0x0 REVERT JUMPDEST POP POP POP POP PUSH1 0x40 MLOAD RETURNDATASIZE PUSH1 0x1F NOT PUSH1 0x1F DUP3 ADD AND DUP3 ADD DUP1 PUSH1 0x40 MSTORE POP DUP2 ADD SWAP1 PUSH2 0x2688 SWAP2 SWAP1 PUSH2 0x2C09 JUMP JUMPDEST SWAP1 POP PUSH2 0x26B6 PUSH32 0xD29043F3603C24ACDA5FE42185F8C7CDE57F0B19FCDCB7E5CDBDFB4E53387606 PUSH1 0x0 SHL PUSH2 0x299E JUMP JUMPDEST PUSH2 0x26E2 PUSH32 0x38AF511F00F85B44768EC2FDF41E396AA1EC0A0146025D3C69A72C21971B9EAE PUSH1 0x0 SHL PUSH2 0x299E JUMP JUMPDEST DUP1 PUSH20 0xFFFFFFFFFFFFFFFFFFFFFFFFFFFFFFFFFFFFFFFF AND DUP4 PUSH20 0xFFFFFFFFFFFFFFFFFFFFFFFFFFFFFFFFFFFFFFFF AND EQ PUSH2 0x279F JUMPI PUSH2 0x2741 PUSH32 0xBFA2064F977C58A33E61324C2BC1024FBA1BC6A9A9A4B0F310A80F0F0CB945B6 PUSH1 0x0 SHL PUSH2 0x299E JUMP JUMPDEST PUSH2 0x276D PUSH32 0x3F47F080D38B1C2117CC16B02A39B39EEF4AA1F4064167E79ADEC5A40673444D PUSH1 0x0 SHL PUSH2 0x299E JUMP JUMPDEST PUSH1 0x40 MLOAD PUSH32 0x94953B6000000000000000000000000000000000000000000000000000000000 DUP2 MSTORE PUSH1 0x4 ADD PUSH1 0x40 MLOAD DUP1 SWAP2 SUB SWAP1 REVERT JUMPDEST PUSH2 0x27CB PUSH32 0x2504E51202C54C11D97144FCF56974E080F2E2F5DFC21FAA4BBE11F08EA43EC8 PUSH1 0x0 SHL PUSH2 0x299E JUMP JUMPDEST PUSH2 0x27F7 PUSH32 0x5A7C0EBA47A7ADD64CDAB858E2DE08225B43EDC3477EFAC427BCCFD37CED3382 PUSH1 0x0 SHL PUSH2 0x299E JUMP JUMPDEST PUSH2 0x2823 PUSH32 0x6DD14C7DA10393B610C05AB511C23BCCFB3B65554782CF0CC6D693C17257982E PUSH1 0x0 SHL PUSH2 0x299E JUMP JUMPDEST PUSH2 0x284F PUSH32 0x2AB95895DFD71494A638C310D56C7B41FCA9D3F4938BAF7ECC839F0F0A16BB6B PUSH1 0x0 SHL PUSH2 0x299E JUMP JUMPDEST PUSH2 0x287B PUSH32 0x1C6589FFF342747493EE1638C1B8805B7B4E18D551C1148D0E0DC0A75D8D12B0 PUSH1 0x0 SHL PUSH2 0x299E JUMP JUMPDEST DUP9 PUSH1 0x1 PUSH1 0x0 DUP14 PUSH20 0xFFFFFFFFFFFFFFFFFFFFFFFFFFFFFFFFFFFFFFFF AND PUSH20 0xFFFFFFFFFFFFFFFFFFFFFFFFFFFFFFFFFFFFFFFF AND DUP2 MSTORE PUSH1 0x20 ADD SWAP1 DUP2 MSTORE PUSH1 0x20 ADD PUSH1 0x0 KECCAK256 PUSH1 0x0 DUP13 DUP2 MSTORE PUSH1 0x20 ADD SWAP1 DUP2 MSTORE PUSH1 0x20 ADD PUSH1 0x0 KECCAK256 PUSH1 0x0 ADD DUP2 SWAP1 SSTORE POP PUSH2 0x28FF PUSH32 0x5A510333320C5D40AA0E4EECAAD384A082FEC2C10D8B3AC0581D3FF76534770 PUSH1 0x0 SHL PUSH2 0x299E JUMP JUMPDEST PUSH2 0x292B PUSH32 0xDFA06B61473A5888DA94FE8DEB3E5CFF49C79EC3F659091133A80834C39242B1 PUSH1 0x0 SHL PUSH2 0x299E JUMP JUMPDEST DUP10 DUP12 PUSH20 0xFFFFFFFFFFFFFFFFFFFFFFFFFFFFFFFFFFFFFFFF AND CALLER PUSH20 0xFFFFFFFFFFFFFFFFFFFFFFFFFFFFFFFFFFFFFFFF AND PUSH32 0xD547E933094F12A9159076970143EBE73234E64480317844B0DCB36117116DE4 DUP13 PUSH1 0x40 MLOAD PUSH2 0x2989 SWAP2 SWAP1 PUSH2 0x2A7A JUMP JUMPDEST PUSH1 0x40 MLOAD DUP1 SWAP2 SUB SWAP1 LOG4 POP POP POP POP POP POP POP POP POP POP POP JUMP JUMPDEST POP JUMP JUMPDEST PUSH1 0x40 MLOAD DUP1 PUSH1 0x40 ADD PUSH1 0x40 MSTORE DUP1 PUSH1 0x0 DUP2 MSTORE PUSH1 0x20 ADD PUSH1 0x0 PUSH20 0xFFFFFFFFFFFFFFFFFFFFFFFFFFFFFFFFFFFFFFFF AND DUP2 MSTORE POP SWAP1 JUMP JUMPDEST PUSH1 0x0 DUP1 REVERT JUMPDEST PUSH1 0x0 PUSH20 0xFFFFFFFFFFFFFFFFFFFFFFFFFFFFFFFFFFFFFFFF DUP3 AND SWAP1 POP SWAP2 SWAP1 POP JUMP JUMPDEST PUSH1 0x0 PUSH2 0x2A01 DUP3 PUSH2 0x29D6 JUMP JUMPDEST SWAP1 POP SWAP2 SWAP1 POP JUMP JUMPDEST PUSH2 0x2A11 DUP2 PUSH2 0x29F6 JUMP JUMPDEST DUP2 EQ PUSH2 0x2A1C JUMPI PUSH1 0x0 DUP1 REVERT JUMPDEST POP JUMP JUMPDEST PUSH1 0x0 DUP2 CALLDATALOAD SWAP1 POP PUSH2 0x2A2E DUP2 PUSH2 0x2A08 JUMP JUMPDEST SWAP3 SWAP2 POP POP JUMP JUMPDEST PUSH1 0x0 PUSH1 0x20 DUP3 DUP5 SUB SLT ISZERO PUSH2 0x2A4A JUMPI PUSH2 0x2A49 PUSH2 0x29D1 JUMP JUMPDEST JUMPDEST PUSH1 0x0 PUSH2 0x2A58 DUP5 DUP3 DUP6 ADD PUSH2 0x2A1F JUMP JUMPDEST SWAP2 POP POP SWAP3 SWAP2 POP POP JUMP JUMPDEST PUSH1 0x0 DUP2 SWAP1 POP SWAP2 SWAP1 POP JUMP JUMPDEST PUSH2 0x2A74 DUP2 PUSH2 0x2A61 JUMP JUMPDEST DUP3 MSTORE POP POP JUMP JUMPDEST PUSH1 0x0 PUSH1 0x20 DUP3 ADD SWAP1 POP PUSH2 0x2A8F PUSH1 0x0 DUP4 ADD DUP5 PUSH2 0x2A6B JUMP JUMPDEST SWAP3 SWAP2 POP POP JUMP JUMPDEST PUSH2 0x2A9E DUP2 PUSH2 0x2A61 JUMP JUMPDEST DUP2 EQ PUSH2 0x2AA9 JUMPI PUSH1 0x0 DUP1 REVERT JUMPDEST POP JUMP JUMPDEST PUSH1 0x0 DUP2 CALLDATALOAD SWAP1 POP PUSH2 0x2ABB DUP2 PUSH2 0x2A95 JUMP JUMPDEST SWAP3 SWAP2 POP POP JUMP JUMPDEST PUSH1 0x0 DUP1 PUSH1 0x40 DUP4 DUP6 SUB SLT ISZERO PUSH2 0x2AD8 JUMPI PUSH2 0x2AD7 PUSH2 0x29D1 JUMP JUMPDEST JUMPDEST PUSH1 0x0 PUSH2 0x2AE6 DUP6 DUP3 DUP7 ADD PUSH2 0x2A1F JUMP JUMPDEST SWAP3 POP POP PUSH1 0x20 PUSH2 0x2AF7 DUP6 DUP3 DUP7 ADD PUSH2 0x2AAC JUMP JUMPDEST SWAP2 POP POP SWAP3 POP SWAP3 SWAP1 POP JUMP JUMPDEST PUSH2 0x2B0A DUP2 PUSH2 0x2A61 JUMP JUMPDEST DUP3 MSTORE POP POP JUMP JUMPDEST PUSH2 0x2B19 DUP2 PUSH2 0x29F6 JUMP JUMPDEST DUP3 MSTORE POP POP JUMP JUMPDEST PUSH1 0x40 DUP3 ADD PUSH1 0x0 DUP3 ADD MLOAD PUSH2 0x2B35 PUSH1 0x0 DUP6 ADD DUP3 PUSH2 0x2B01 JUMP JUMPDEST POP PUSH1 0x20 DUP3 ADD MLOAD PUSH2 0x2B48 PUSH1 0x20 DUP6 ADD DUP3 PUSH2 0x2B10 JUMP JUMPDEST POP POP POP POP JUMP JUMPDEST PUSH1 0x0 PUSH1 0x40 DUP3 ADD SWAP1 POP PUSH2 0x2B63 PUSH1 0x0 DUP4 ADD DUP5 PUSH2 0x2B1F JUMP JUMPDEST SWAP3 SWAP2 POP POP JUMP JUMPDEST PUSH1 0x0 DUP1 PUSH1 0x0 PUSH1 0x60 DUP5 DUP7 SUB SLT ISZERO PUSH2 0x2B82 JUMPI PUSH2 0x2B81 PUSH2 0x29D1 JUMP JUMPDEST JUMPDEST PUSH1 0x0 PUSH2 0x2B90 DUP7 DUP3 DUP8 ADD PUSH2 0x2A1F JUMP JUMPDEST SWAP4 POP POP PUSH1 0x20 PUSH2 0x2BA1 DUP7 DUP3 DUP8 ADD PUSH2 0x2AAC JUMP JUMPDEST SWAP3 POP POP PUSH1 0x40 PUSH2 0x2BB2 DUP7 DUP3 DUP8 ADD PUSH2 0x2AAC JUMP JUMPDEST SWAP2 POP POP SWAP3 POP SWAP3 POP SWAP3 JUMP JUMPDEST PUSH2 0x2BC5 DUP2 PUSH2 0x29F6 JUMP JUMPDEST DUP3 MSTORE POP POP JUMP JUMPDEST PUSH1 0x0 PUSH1 0x40 DUP3 ADD SWAP1 POP PUSH2 0x2BE0 PUSH1 0x0 DUP4 ADD DUP6 PUSH2 0x2BBC JUMP JUMPDEST PUSH2 0x2BED PUSH1 0x20 DUP4 ADD DUP5 PUSH2 0x2A6B JUMP JUMPDEST SWAP4 SWAP3 POP POP POP JUMP JUMPDEST PUSH1 0x0 DUP2 MLOAD SWAP1 POP PUSH2 0x2C03 DUP2 PUSH2 0x2A08 JUMP JUMPDEST SWAP3 SWAP2 POP POP JUMP JUMPDEST PUSH1 0x0 PUSH1 0x20 DUP3 DUP5 SUB SLT ISZERO PUSH2 0x2C1F JUMPI PUSH2 0x2C1E PUSH2 0x29D1 JUMP JUMPDEST JUMPDEST PUSH1 0x0 PUSH2 0x2C2D DUP5 DUP3 DUP6 ADD PUSH2 0x2BF4 JUMP JUMPDEST SWAP2 POP POP SWAP3 SWAP2 POP POP JUMP JUMPDEST PUSH1 0x0 DUP2 SWAP1 POP SWAP3 SWAP2 POP POP JUMP JUMPDEST POP JUMP JUMPDEST PUSH1 0x0 PUSH2 0x2C51 PUSH1 0x0 DUP4 PUSH2 0x2C36 JUMP JUMPDEST SWAP2 POP PUSH2 0x2C5C DUP3 PUSH2 0x2C41 JUMP JUMPDEST PUSH1 0x0 DUP3 ADD SWAP1 POP SWAP2 SWAP1 POP JUMP JUMPDEST PUSH1 0x0 PUSH2 0x2C72 DUP3 PUSH2 0x2C44 JUMP JUMPDEST SWAP2 POP DUP2 SWAP1 POP SWAP2 SWAP1 POP JUMP JUMPDEST PUSH1 0x0 DUP3 DUP3 MSTORE PUSH1 0x20 DUP3 ADD SWAP1 POP SWAP3 SWAP2 POP POP JUMP JUMPDEST PUSH32 0x5265656E7472616E637947756172643A207265656E7472616E742063616C6C00 PUSH1 0x0 DUP3 ADD MSTORE POP JUMP JUMPDEST PUSH1 0x0 PUSH2 0x2CC3 PUSH1 0x1F DUP4 PUSH2 0x2C7C JUMP JUMPDEST SWAP2 POP PUSH2 0x2CCE DUP3 PUSH2 0x2C8D JUMP JUMPDEST PUSH1 0x20 DUP3 ADD SWAP1 POP SWAP2 SWAP1 POP JUMP JUMPDEST PUSH1 0x0 PUSH1 0x20 DUP3 ADD SWAP1 POP DUP2 DUP2 SUB PUSH1 0x0 DUP4 ADD MSTORE PUSH2 0x2CF2 DUP2 PUSH2 0x2CB6 JUMP JUMPDEST SWAP1 POP SWAP2 SWAP1 POP JUMP JUMPDEST PUSH1 0x0 PUSH1 0x60 DUP3 ADD SWAP1 POP PUSH2 0x2D0E PUSH1 0x0 DUP4 ADD DUP7 PUSH2 0x2BBC JUMP JUMPDEST PUSH2 0x2D1B PUSH1 0x20 DUP4 ADD DUP6 PUSH2 0x2A6B JUMP JUMPDEST PUSH2 0x2D28 PUSH1 0x40 DUP4 ADD DUP5 PUSH2 0x2A6B JUMP JUMPDEST SWAP5 SWAP4 POP POP POP POP JUMP JUMPDEST PUSH32 0x4E487B7100000000000000000000000000000000000000000000000000000000 PUSH1 0x0 MSTORE PUSH1 0x11 PUSH1 0x4 MSTORE PUSH1 0x24 PUSH1 0x0 REVERT JUMPDEST PUSH1 0x0 PUSH2 0x2D6A DUP3 PUSH2 0x2A61 JUMP JUMPDEST SWAP2 POP PUSH2 0x2D75 DUP4 PUSH2 0x2A61 JUMP JUMPDEST SWAP3 POP DUP3 PUSH32 0xFFFFFFFFFFFFFFFFFFFFFFFFFFFFFFFFFFFFFFFFFFFFFFFFFFFFFFFFFFFFFFFF SUB DUP3 GT ISZERO PUSH2 0x2DAA JUMPI PUSH2 0x2DA9 PUSH2 0x2D30 JUMP JUMPDEST JUMPDEST DUP3 DUP3 ADD SWAP1 POP SWAP3 SWAP2 POP POP JUMP JUMPDEST PUSH1 0x0 PUSH1 0x60 DUP3 ADD SWAP1 POP PUSH2 0x2DCA PUSH1 0x0 DUP4 ADD DUP7 PUSH2 0x2BBC JUMP JUMPDEST PUSH2 0x2DD7 PUSH1 0x20 DUP4 ADD DUP6 PUSH2 0x2BBC JUMP JUMPDEST PUSH2 0x2DE4 PUSH1 0x40 DUP4 ADD DUP5 PUSH2 0x2A6B JUMP JUMPDEST SWAP5 SWAP4 POP POP POP POP JUMP INVALID LOG2 PUSH5 0x6970667358 0x22 SLT KECCAK256 CALLDATACOPY 0xD3 CALLVALUE JUMPDEST 0xBA 0xC5 0x27 LOG0 PUSH15 0xABE894F39A6CCA33FA7D258F1D98DA PUSH27 0x871794E4AEB52C64736F6C63430008080033000000000000000000 "
        },
        "gasEstimates": {
          "creation": {
            "codeDepositCost": "2362000",
            "executionCost": "24652",
            "totalCost": "2386652"
          },
          "external": {
            "buyItem(address,uint256)": "infinite",
            "cancelItem(address,uint256)": "infinite",
            "getListing(address,uint256)": "infinite",
            "getProceeds(address)": "infinite",
            "listItem(address,uint256,uint256)": "infinite",
            "updateListing(address,uint256,uint256)": "infinite",
            "withdrawProceeds()": "infinite"
          },
          "internal": {
            "c_0x68c6979c(bytes32)": "11"
          }
        },
        "methodIdentifiers": {
          "buyItem(address,uint256)": "9f37092a",
          "cancelItem(address,uint256)": "8f6d40d2",
          "getListing(address,uint256)": "88700d1c",
          "getProceeds(address)": "30cfeda9",
          "listItem(address,uint256,uint256)": "89bfd38f",
          "updateListing(address,uint256,uint256)": "f772adf1",
          "withdrawProceeds()": "9038e693"
        }
      },
      "storageLayout": {
        "storage": [
          {
            "astId": 10,
            "contract": "contracts/NftMarketplace.sol:NftMarketplace",
            "label": "_status",
            "offset": 0,
            "slot": "0",
            "type": "t_uint256"
          },
          {
            "astId": 1734,
            "contract": "contracts/NftMarketplace.sol:NftMarketplace",
            "label": "s_listings",
            "offset": 0,
            "slot": "1",
            "type": "t_mapping(t_address,t_mapping(t_uint256,t_struct(Listing)1699_storage))"
          },
          {
            "astId": 1738,
            "contract": "contracts/NftMarketplace.sol:NftMarketplace",
            "label": "s_proceeds",
            "offset": 0,
            "slot": "2",
            "type": "t_mapping(t_address,t_uint256)"
          }
        ],
        "types": {
          "t_address": {
            "encoding": "inplace",
            "label": "address",
            "numberOfBytes": "20"
          },
          "t_mapping(t_address,t_mapping(t_uint256,t_struct(Listing)1699_storage))": {
            "encoding": "mapping",
            "key": "t_address",
            "label": "mapping(address => mapping(uint256 => struct NftMarketplace.Listing))",
            "numberOfBytes": "32",
            "value": "t_mapping(t_uint256,t_struct(Listing)1699_storage)"
          },
          "t_mapping(t_address,t_uint256)": {
            "encoding": "mapping",
            "key": "t_address",
            "label": "mapping(address => uint256)",
            "numberOfBytes": "32",
            "value": "t_uint256"
          },
          "t_mapping(t_uint256,t_struct(Listing)1699_storage)": {
            "encoding": "mapping",
            "key": "t_uint256",
            "label": "mapping(uint256 => struct NftMarketplace.Listing)",
            "numberOfBytes": "32",
            "value": "t_struct(Listing)1699_storage"
          },
          "t_struct(Listing)1699_storage": {
            "encoding": "inplace",
            "label": "struct NftMarketplace.Listing",
            "members": [
              {
                "astId": 1696,
                "contract": "contracts/NftMarketplace.sol:NftMarketplace",
                "label": "price",
                "offset": 0,
                "slot": "0",
                "type": "t_uint256"
              },
              {
                "astId": 1698,
                "contract": "contracts/NftMarketplace.sol:NftMarketplace",
                "label": "seller",
                "offset": 0,
                "slot": "1",
                "type": "t_address"
              }
            ],
            "numberOfBytes": "64"
          },
          "t_uint256": {
            "encoding": "inplace",
            "label": "uint256",
            "numberOfBytes": "32"
          }
        }
      },
      "userdoc": {
        "kind": "user",
        "methods": {},
        "version": 1
      }
    }
  }
}