{
  "_format": "hh-sol-artifact-1",
  "contractName": "NftMarketplace",
  "sourceName": "contracts/NftMarketplace.sol",
  "abi": [
    {
      "inputs": [
        {
          "internalType": "address",
          "name": "nftAddress",
          "type": "address"
        },
        {
          "internalType": "uint256",
          "name": "tokenId",
          "type": "uint256"
        }
      ],
      "name": "NftMarketplace__AlreadyListed",
      "type": "error"
    },
    {
      "inputs": [],
      "name": "NftMarketplace__NoProceeds",
      "type": "error"
    },
    {
      "inputs": [],
      "name": "NftMarketplace__NotApprovedForMarketplace",
      "type": "error"
    },
    {
      "inputs": [
        {
          "internalType": "address",
          "name": "nftAddress",
          "type": "address"
        },
        {
          "internalType": "uint256",
          "name": "tokenId",
          "type": "uint256"
        }
      ],
      "name": "NftMarketplace__NotListed",
      "type": "error"
    },
    {
      "inputs": [],
      "name": "NftMarketplace__NotOwner",
      "type": "error"
    },
    {
      "inputs": [],
      "name": "NftMarketplace__PriceMustBeAboveZero",
      "type": "error"
    },
    {
      "inputs": [
        {
          "internalType": "address",
          "name": "nftAddress",
          "type": "address"
        },
        {
          "internalType": "uint256",
          "name": "tokenId",
          "type": "uint256"
        },
        {
          "internalType": "uint256",
          "name": "price",
          "type": "uint256"
        }
      ],
      "name": "NftMarketplace__PriceNotMet",
      "type": "error"
    },
    {
      "inputs": [],
      "name": "NftMarketplace__TransferFailed",
      "type": "error"
    },
    {
      "anonymous": false,
      "inputs": [
        {
          "indexed": true,
          "internalType": "address",
          "name": "buyer",
          "type": "address"
        },
        {
          "indexed": true,
          "internalType": "address",
          "name": "nftAddress",
          "type": "address"
        },
        {
          "indexed": true,
          "internalType": "uint256",
          "name": "tokenId",
          "type": "uint256"
        },
        {
          "indexed": false,
          "internalType": "uint256",
          "name": "price",
          "type": "uint256"
        }
      ],
      "name": "ItemBought",
      "type": "event"
    },
    {
      "anonymous": false,
      "inputs": [
        {
          "indexed": true,
          "internalType": "address",
          "name": "seller",
          "type": "address"
        },
        {
          "indexed": true,
          "internalType": "address",
          "name": "nftAddress",
          "type": "address"
        },
        {
          "indexed": true,
          "internalType": "uint256",
          "name": "tokenId",
          "type": "uint256"
        }
      ],
      "name": "ItemCanceled",
      "type": "event"
    },
    {
      "anonymous": false,
      "inputs": [
        {
          "indexed": true,
          "internalType": "address",
          "name": "seller",
          "type": "address"
        },
        {
          "indexed": true,
          "internalType": "address",
          "name": "nftAddress",
          "type": "address"
        },
        {
          "indexed": true,
          "internalType": "uint256",
          "name": "tokenId",
          "type": "uint256"
        },
        {
          "indexed": false,
          "internalType": "uint256",
          "name": "price",
          "type": "uint256"
        }
      ],
      "name": "ItemListed",
      "type": "event"
    },
    {
      "inputs": [
        {
          "internalType": "address",
          "name": "nftAddress",
          "type": "address"
        },
        {
          "internalType": "uint256",
          "name": "tokenId",
          "type": "uint256"
        }
      ],
      "name": "buyItem",
      "outputs": [],
      "stateMutability": "payable",
      "type": "function"
    },
    {
      "inputs": [
        {
          "internalType": "address",
          "name": "nftAddress",
          "type": "address"
        },
        {
          "internalType": "uint256",
          "name": "tokenId",
          "type": "uint256"
        }
      ],
      "name": "cancelItem",
      "outputs": [],
      "stateMutability": "nonpayable",
      "type": "function"
    },
    {
      "inputs": [
        {
          "internalType": "address",
          "name": "nftAddress",
          "type": "address"
        },
        {
          "internalType": "uint256",
          "name": "tokenId",
          "type": "uint256"
        }
      ],
      "name": "getListing",
      "outputs": [
        {
          "components": [
            {
              "internalType": "uint256",
              "name": "price",
              "type": "uint256"
            },
            {
              "internalType": "address",
              "name": "seller",
              "type": "address"
            }
          ],
          "internalType": "struct NftMarketplace.Listing",
          "name": "",
          "type": "tuple"
        }
      ],
      "stateMutability": "view",
      "type": "function"
    },
    {
      "inputs": [
        {
          "internalType": "address",
          "name": "seller",
          "type": "address"
        }
      ],
      "name": "getProceeds",
      "outputs": [
        {
          "internalType": "uint256",
          "name": "",
          "type": "uint256"
        }
      ],
      "stateMutability": "view",
      "type": "function"
    },
    {
      "inputs": [
        {
          "internalType": "address",
          "name": "nftAddress",
          "type": "address"
        },
        {
          "internalType": "uint256",
          "name": "tokenId",
          "type": "uint256"
        },
        {
          "internalType": "uint256",
          "name": "price",
          "type": "uint256"
        }
      ],
      "name": "listItem",
      "outputs": [],
      "stateMutability": "nonpayable",
      "type": "function"
    },
    {
      "inputs": [
        {
          "internalType": "address",
          "name": "nftAddress",
          "type": "address"
        },
        {
          "internalType": "uint256",
          "name": "tokenId",
          "type": "uint256"
        },
        {
          "internalType": "uint256",
          "name": "newPrice",
          "type": "uint256"
        }
      ],
      "name": "updateListing",
      "outputs": [],
      "stateMutability": "nonpayable",
      "type": "function"
    },
    {
      "inputs": [],
      "name": "withdrawProceeds",
      "outputs": [],
      "stateMutability": "nonpayable",
      "type": "function"
    }
  ],
  "bytecode": "0x608060405234801561001057600080fd5b506001600081905550612e22806100286000396000f3fe6080604052600436106100705760003560e01c80638f6d40d21161004e5780638f6d40d2146101185780639038e693146101415780639f37092a14610158578063f772adf11461017457610070565b806330cfeda91461007557806388700d1c146100b257806389bfd38f146100ef575b600080fd5b34801561008157600080fd5b5061009c60048036038101906100979190612a34565b61019d565b6040516100a99190612a7a565b60405180910390f35b3480156100be57600080fd5b506100d960048036038101906100d49190612ac1565b61026a565b6040516100e69190612b4e565b60405180910390f35b3480156100fb57600080fd5b5061011660048036038101906101119190612b69565b6103b9565b005b34801561012457600080fd5b5061013f600480360381019061013a9190612ac1565b610e8d565b005b34801561014d57600080fd5b5061015661159c565b005b610172600480360381019061016d9190612ac1565b6119f2565b005b34801561018057600080fd5b5061019b60048036038101906101969190612b69565b612281565b005b60006101cb7f2b56bbcb13b302b9772e079cd1b03ff7eb876728b7be7e626d9944f353c2b1ab60001b61299e565b6101f77f0b8432a8a2ac81b97ea396963a0094351b1f8bcdeb981c33fa8ecc88cf8bac3360001b61299e565b6102237fb967a14250ed3761cda0b5039e59fff9bd9c0c6efe8f89a50d5eaaa444979ba660001b61299e565b600260008373ffffffffffffffffffffffffffffffffffffffff1673ffffffffffffffffffffffffffffffffffffffff168152602001908152602001600020549050919050565b6102726129a1565b61029e7f72e1516487dacbde4acddd5bf69db6a55e669b2e53cdb33067241f68a6d21a3560001b61299e565b6102ca7f28175f3e9033f5772b1f725cbe8774b0efcfbedb158c32fdc4058f19fc1ee19b60001b61299e565b6102f67f9fd0b97b962606751e959333b6413ec238aaa04813f13e9d399885c559960cb060001b61299e565b600160008473ffffffffffffffffffffffffffffffffffffffff1673ffffffffffffffffffffffffffffffffffffffff1681526020019081526020016000206000838152602001908152602001600020604051806040016040529081600082015481526020016001820160009054906101000a900473ffffffffffffffffffffffffffffffffffffffff1673ffffffffffffffffffffffffffffffffffffffff1673ffffffffffffffffffffffffffffffffffffffff1681525050905092915050565b8282336103e87f42a0cbeb3ec4ad3b5f7a347643e465aa377e794f527d34bc86848b11d07c617360001b61299e565b6104147f28284abe0b3ea146724aa149586e91b76a3d701f82f285ffecb6ae2e9fe9ba0e60001b61299e565b6104407f5a631151367a299d1ebd5654744d8e9cbc5c2028f13d8e4fbe2ba58cb761b25160001b61299e565b6000600160008573ffffffffffffffffffffffffffffffffffffffff1673ffffffffffffffffffffffffffffffffffffffff1681526020019081526020016000206000848152602001908152602001600020604051806040016040529081600082015481526020016001820160009054906101000a900473ffffffffffffffffffffffffffffffffffffffff1673ffffffffffffffffffffffffffffffffffffffff1673ffffffffffffffffffffffffffffffffffffffff1681525050905061052b7f5aca2b980312f38503f75a732a5b2ca9d6e6297fe7fc7fbf4b3ce7ac9e1e9cdf60001b61299e565b6105577f30e59c8c28a922b240fdbf722a156c383fc95cbb25daade95078701146ca7c6560001b61299e565b6000816000015111156105fb576105907f59b43fbba85bc84fcec17f565af0567569c961a26281a25df4155a2cd06971ea60001b61299e565b6105bc7f0f5b4acddfe78b12ff5a765013bf08087b7025d844f39f66d1dd8f08ca778f5360001b61299e565b83836040517fc2f0d7090000000000000000000000000000000000000000000000000000000081526004016105f2929190612bcb565b60405180910390fd5b6106277f53d48f14f2c6112d8935bbbb4626853a02fafb5c6b50e76f35c5b8b5bce76f2160001b61299e565b6106537f10df3ff66ae2455b78a0a9e4cdcd353ee155fd0ae7171e1db537565b4495fc6e60001b61299e565b8686336106827f8d487aebfe920b1b14f9a6b3ad856608d6d72debf0dde958b3062c37d01544de60001b61299e565b6106ae7f98660ed6db4aa03b4bc58e81064599b86ecac1a13d18bbe061e4f5dcebd690c460001b61299e565b6106da7f95ba6fc28c15c0202559f2c926446ae6e05fa23e02f6a27f33e03416119001e860001b61299e565b600083905061070b7f0bf5e21f8ae568549908641cf09bae6a7f720838de7f128d3a33b38b371ddcef60001b61299e565b6107377ff7e8190802353d83ffdbe86714f986da05ef6e16354d7a9dbc9ce30ba5acf3f360001b61299e565b60008173ffffffffffffffffffffffffffffffffffffffff16636352211e856040518263ffffffff1660e01b81526004016107729190612a7a565b60206040518083038186803b15801561078a57600080fd5b505afa15801561079e573d6000803e3d6000fd5b505050506040513d601f19601f820116820180604052508101906107c29190612c09565b90506107f07fd29043f3603c24acda5fe42185f8c7cde57f0b19fcdcb7e5cdbdfb4e5338760660001b61299e565b61081c7f38af511f00f85b44768ec2fdf41e396aa1ec0a0146025d3c69a72c21971b9eae60001b61299e565b8073ffffffffffffffffffffffffffffffffffffffff168373ffffffffffffffffffffffffffffffffffffffff16146108d95761087b7fbfa2064f977c58a33e61324c2bc1024fba1bc6a9a9a4b0f310a80f0f0cb945b660001b61299e565b6108a77f3f47f080d38b1c2117cc16b02a39b39eef4aa1f4064167e79adec5a40673444d60001b61299e565b6040517f94953b6000000000000000000000000000000000000000000000000000000000815260040160405180910390fd5b6109057f2504e51202c54c11d97144fcf56974e080f2e2f5dfc21faa4bbe11f08ea43ec860001b61299e565b6109317f5a7c0eba47a7add64cdab858e2de08225b43edc3477efac427bccfd37ced338260001b61299e565b61095d7fac56c6ec363f23c6c4b48218ec475077a451e9ee0b0f2793532907bf50be124660001b61299e565b6109897f631adeadb05d13ab163c42bbf93f4441ef5767db64b87fb7286c8d72511989ef60001b61299e565b6109b57f35f0f881375eb628c75a933ec5bb1e483526ca33c6e1cecd42a3f9626b5f3f0360001b61299e565b60008a11610a47576109e97f88f47ab3df624e63648eb013f488668665188db9b576d4a97dfedd029a1d3ae660001b61299e565b610a157f819cd97442683c4c0ed40732bd39170ec46edbdc7725de506d9413ffb18a1a3860001b61299e565b6040517f096d7ecf00000000000000000000000000000000000000000000000000000000815260040160405180910390fd5b610a737fbce23f0a0642b79d8c282821f983c01c03a16744f58d34210921cccf8703d43b60001b61299e565b610a9f7f1f2820838bc2ab17116ecb9923194dafc86a6ad83ea131266546d3ebcc4c939d60001b61299e565b610acb7fbae7f60c7307337cdd239dca96737aae0eda24e9458c14f7cdaccde4d066840860001b61299e565b60008c9050610afc7f6f2b526ea0edbf37a89e3e0855a0bab20333c7433081d2f3e69ade0cb42f808b60001b61299e565b610b287f6756ccb51876b8c8925ec229b72701c647813a64efa48e140dc45591991b88a060001b61299e565b3073ffffffffffffffffffffffffffffffffffffffff168173ffffffffffffffffffffffffffffffffffffffff1663081812fc8e6040518263ffffffff1660e01b8152600401610b789190612a7a565b60206040518083038186803b158015610b9057600080fd5b505afa158015610ba4573d6000803e3d6000fd5b505050506040513d601f19601f82011682018060405250810190610bc89190612c09565b73ffffffffffffffffffffffffffffffffffffffff1614610c6d57610c0f7fcf931d24421302a73d1c4e3761c0a27124d6ec9d6e2890b07833a365137d319a60001b61299e565b610c3b7f11aa20773c6a716db8cc8d3914ec3c6a21e3b8658016810cb81e7505412fa9ba60001b61299e565b6040517f13e7d28d00000000000000000000000000000000000000000000000000000000815260040160405180910390fd5b610c997f8ade13fdf2d1c442f9016b626b7df511cf7e6789ab36ecdfe29e3ff064cdd72460001b61299e565b610cc57fc87d76c0b6aebc7bca1e7e151beb48a4650c065b60809c0b026ff5779543c3e860001b61299e565b610cf17f56025bc471ea7a2d03e986ea8a4968b102ac0e34439d332844b6104faa032edb60001b61299e565b60405180604001604052808c81526020013373ffffffffffffffffffffffffffffffffffffffff16815250600160008f73ffffffffffffffffffffffffffffffffffffffff1673ffffffffffffffffffffffffffffffffffffffff16815260200190815260200160002060008e81526020019081526020016000206000820151816000015560208201518160010160006101000a81548173ffffffffffffffffffffffffffffffffffffffff021916908373ffffffffffffffffffffffffffffffffffffffff160217905550905050610dec7fe2f4a6c42e354e70397f7f30c6bd36652aef5a766c3c653b431c2d6f5459532b60001b61299e565b610e187f5298cd259fbfd9adae362df2ae934c65be205c120ff9f16ecf3f4324b13828ed60001b61299e565b8b8d73ffffffffffffffffffffffffffffffffffffffff163373ffffffffffffffffffffffffffffffffffffffff167fd547e933094f12a9159076970143ebe73234e64480317844b0dcb36117116de48e604051610e769190612a7a565b60405180910390a450505050505050505050505050565b818133610ebc7f8d487aebfe920b1b14f9a6b3ad856608d6d72debf0dde958b3062c37d01544de60001b61299e565b610ee87f98660ed6db4aa03b4bc58e81064599b86ecac1a13d18bbe061e4f5dcebd690c460001b61299e565b610f147f95ba6fc28c15c0202559f2c926446ae6e05fa23e02f6a27f33e03416119001e860001b61299e565b6000839050610f457f0bf5e21f8ae568549908641cf09bae6a7f720838de7f128d3a33b38b371ddcef60001b61299e565b610f717ff7e8190802353d83ffdbe86714f986da05ef6e16354d7a9dbc9ce30ba5acf3f360001b61299e565b60008173ffffffffffffffffffffffffffffffffffffffff16636352211e856040518263ffffffff1660e01b8152600401610fac9190612a7a565b60206040518083038186803b158015610fc457600080fd5b505afa158015610fd8573d6000803e3d6000fd5b505050506040513d601f19601f82011682018060405250810190610ffc9190612c09565b905061102a7fd29043f3603c24acda5fe42185f8c7cde57f0b19fcdcb7e5cdbdfb4e5338760660001b61299e565b6110567f38af511f00f85b44768ec2fdf41e396aa1ec0a0146025d3c69a72c21971b9eae60001b61299e565b8073ffffffffffffffffffffffffffffffffffffffff168373ffffffffffffffffffffffffffffffffffffffff1614611113576110b57fbfa2064f977c58a33e61324c2bc1024fba1bc6a9a9a4b0f310a80f0f0cb945b660001b61299e565b6110e17f3f47f080d38b1c2117cc16b02a39b39eef4aa1f4064167e79adec5a40673444d60001b61299e565b6040517f94953b6000000000000000000000000000000000000000000000000000000000815260040160405180910390fd5b61113f7f2504e51202c54c11d97144fcf56974e080f2e2f5dfc21faa4bbe11f08ea43ec860001b61299e565b61116b7f5a7c0eba47a7add64cdab858e2de08225b43edc3477efac427bccfd37ced338260001b61299e565b86866111997fae97fb8c2988aebd6738f6203bd36e59e4c7d14fb978f64c735df5eb67530e8960001b61299e565b6111c57f954915a478202b6bdacb3c415aaa0aba9b3154c4d62a52206cb4c11e3fff001e60001b61299e565b6111f17feb360237795fdcec15db74341953984f07bc476d79b16f8f3ea74d58c0db9d6360001b61299e565b6000600160008473ffffffffffffffffffffffffffffffffffffffff1673ffffffffffffffffffffffffffffffffffffffff1681526020019081526020016000206000838152602001908152602001600020604051806040016040529081600082015481526020016001820160009054906101000a900473ffffffffffffffffffffffffffffffffffffffff1673ffffffffffffffffffffffffffffffffffffffff1673ffffffffffffffffffffffffffffffffffffffff168152505090506112dc7f930e5a533d71d2dee3a129e8b26ac5dc6ee0fd4762ce7ac583a724bb9b77af9c60001b61299e565b6113087f8847eec46e5076ddf8ffda46ff09d7e89e331ae017fb6c2888dad2e6d565890060001b61299e565b60008160000151116113ab576113407f8cf1841579221626201c04d5ecbb798bce508a67587711ba4e1e078d64db3acf60001b61299e565b61136c7fd3dd6190005b971bafb54f296db58723b861a71d11d2ffab03c7295d2489757760001b61299e565b82826040517f6d350f220000000000000000000000000000000000000000000000000000000081526004016113a2929190612bcb565b60405180910390fd5b6113d77f9a2a63c21196a9ac6cc7c691e660842c475802a149478d18cee8903e4d42a0ae60001b61299e565b6114037f2c7562fdb3b5cb97d4ccc6e4b9843722b28e5a02b2bec96e148cd6cd6c52e69460001b61299e565b61142f7ffe73f1663c212a96e15d71bde33a0a3f65041d0464474e283a6451667359e31a60001b61299e565b61145b7f7c2f843ef7902b67e0dec9b65eec587190f279eb48373840979cd9853bb895cd60001b61299e565b600160008b73ffffffffffffffffffffffffffffffffffffffff1673ffffffffffffffffffffffffffffffffffffffff16815260200190815260200160002060008a81526020019081526020016000206000808201600090556001820160006101000a81549073ffffffffffffffffffffffffffffffffffffffff021916905550506115097f7d82a8423291cf348cea1075b0cdb1803738b58154f1c9a55d652fbf52480db360001b61299e565b6115357fb27cfa988ff21c08c6aaecba61d8fa1099a6cfdc2ad593a425106b0380a9ab7760001b61299e565b888a73ffffffffffffffffffffffffffffffffffffffff163373ffffffffffffffffffffffffffffffffffffffff167f9ba1a3cb55ce8d63d072a886f94d2a744f50cddf82128e897d0661f5ec62315860405160405180910390a450505050505050505050565b6115c87fd1e67f36e4982a79752caafc50df0a6d95d02628b8d5726055c3f9dabe33640d60001b61299e565b6115f47fe229b787d74192cf78e88df65ffbf23c4320884f3b38ef474ca71db714707c6760001b61299e565b6116207faec1ae575591dad4d5cba3cdb20d395e541cb07d625af36d8aff01d439f5227160001b61299e565b6000600260003373ffffffffffffffffffffffffffffffffffffffff1673ffffffffffffffffffffffffffffffffffffffff1681526020019081526020016000205490506116907f27f32301b275734e38b90b6caa8e285f42c787dc2c0f0bafd6ed6d333a4866a660001b61299e565b6116bc7fe0d749a77865d0a9e9d5845902646373c7ef00b2da2e501042339c1f0bf68eaa60001b61299e565b6000811161174e576116f07fc36836aaad4078c85260229a8345e118347f2293e5b3bc0e8670ddc25a3f8f1060001b61299e565b61171c7f9614ec30cefd92c3a042089bb21f89f412d0c04b7d9a98137f47285f16af868660001b61299e565b6040517f668a7c4200000000000000000000000000000000000000000000000000000000815260040160405180910390fd5b61177a7f6872aa21a7cf7845e194ead90976d52e65ccc7b68c7837b823e20d4d75376cc360001b61299e565b6117a67f919597d30958a5f5bf01bc8987f69455dbf1507d72dc2a7ff5586c582711fd0460001b61299e565b6117d27f81749af4306975c912c9d61a1de808640e15f018cf36c8bd500f0f6d1e6e3d3560001b61299e565b6000600260003373ffffffffffffffffffffffffffffffffffffffff1673ffffffffffffffffffffffffffffffffffffffff168152602001908152602001600020819055506118437fd448c90e72ac9c867ff2bf3064923d51d06e0c1d819244a2eb93b455e9d390cd60001b61299e565b61186f7ff84c4407e889b74d45ed6a39843c594570b4eaa9ba0f7105e41a726bf3c4a70060001b61299e565b60003373ffffffffffffffffffffffffffffffffffffffff168260405161189590612c67565b60006040518083038185875af1925050503d80600081146118d2576040519150601f19603f3d011682016040523d82523d6000602084013e6118d7565b606091505b505090506119077f4334df2bd93172432b4501d54f8fefbc656fcd313e7e8533fe5b23bcac997b0d60001b61299e565b6119337fdc575f802a6ac94a5c4d81dcf52b3e42efb540ccd2b53320a57780d05bcd47cb60001b61299e565b806119c2576119647fa0b18e3fc3a45dc4d37f3ad16733f9b53707bbf49e7fa78f1ea30d7bcd568afa60001b61299e565b6119907fa25534b75a5aef246fd818a0ed363a7a3463e72c6700593dba55ba01759e37b360001b61299e565b6040517fa05884ba00000000000000000000000000000000000000000000000000000000815260040160405180910390fd5b6119ee7f0eac518f04fff107a2cc032d60d730ad43693581a8ae6fc15e2632223d0451e760001b61299e565b5050565b60026000541415611a38576040517f08c379a0000000000000000000000000000000000000000000000000000000008152600401611a2f90612cd9565b60405180910390fd5b60026000819055508181611a6e7fae97fb8c2988aebd6738f6203bd36e59e4c7d14fb978f64c735df5eb67530e8960001b61299e565b611a9a7f954915a478202b6bdacb3c415aaa0aba9b3154c4d62a52206cb4c11e3fff001e60001b61299e565b611ac67feb360237795fdcec15db74341953984f07bc476d79b16f8f3ea74d58c0db9d6360001b61299e565b6000600160008473ffffffffffffffffffffffffffffffffffffffff1673ffffffffffffffffffffffffffffffffffffffff1681526020019081526020016000206000838152602001908152602001600020604051806040016040529081600082015481526020016001820160009054906101000a900473ffffffffffffffffffffffffffffffffffffffff1673ffffffffffffffffffffffffffffffffffffffff1673ffffffffffffffffffffffffffffffffffffffff16815250509050611bb17f930e5a533d71d2dee3a129e8b26ac5dc6ee0fd4762ce7ac583a724bb9b77af9c60001b61299e565b611bdd7f8847eec46e5076ddf8ffda46ff09d7e89e331ae017fb6c2888dad2e6d565890060001b61299e565b6000816000015111611c8057611c157f8cf1841579221626201c04d5ecbb798bce508a67587711ba4e1e078d64db3acf60001b61299e565b611c417fd3dd6190005b971bafb54f296db58723b861a71d11d2ffab03c7295d2489757760001b61299e565b82826040517f6d350f22000000000000000000000000000000000000000000000000000000008152600401611c77929190612bcb565b60405180910390fd5b611cac7f9a2a63c21196a9ac6cc7c691e660842c475802a149478d18cee8903e4d42a0ae60001b61299e565b611cd87f2c7562fdb3b5cb97d4ccc6e4b9843722b28e5a02b2bec96e148cd6cd6c52e69460001b61299e565b611d047f5574e711b8c28c47ede15a027da487f3685fee3ab8ae6b08441ddba44b7fa4ee60001b61299e565b611d307f45e1f2c072a453cf27156920791745b5a615d606fcad78cd12a98a4583f498b360001b61299e565b611d5c7fa363e72b1e9b85078a5bb143267512c24d6e134876a385142ebdbb16dc950f5160001b61299e565b6000600160008773ffffffffffffffffffffffffffffffffffffffff1673ffffffffffffffffffffffffffffffffffffffff1681526020019081526020016000206000868152602001908152602001600020604051806040016040529081600082015481526020016001820160009054906101000a900473ffffffffffffffffffffffffffffffffffffffff1673ffffffffffffffffffffffffffffffffffffffff1673ffffffffffffffffffffffffffffffffffffffff16815250509050611e477f06e9ac81d7a0fa4a19483a9a0a0e9b8f8cdbd1cb8ef7e0a951505b98cef9d72760001b61299e565b611e737f98a53fee8e07508b00e995a0901657323bd730b8f01f44603eaa0c9f8eb0b08e60001b61299e565b8060000151341015611f1c57611eab7f0eb2426eda7f3a11d8dce801dc137964b52e93b1fca4cd32f0139ac9534e7ac960001b61299e565b611ed77f28627aeb647417fafe72857b7765600e4f2058305282d6b9908e1ab9475466ae60001b61299e565b858582600001516040517f817ce9f1000000000000000000000000000000000000000000000000000000008152600401611f1393929190612cf9565b60405180910390fd5b611f487ff4890dc2ed54901dd73690c686ff472234ce33ea267494fcf05a3df00fd73c2e60001b61299e565b611f747f020c150e62533d10cd0701c9108c70c07509b6dc29ae04a0248352247f8f9fef60001b61299e565b611fa07f0333c03ae1231a4c7897764d2251b40635abbe57735ed127aa86ebea26b6d16560001b61299e565b3460026000836020015173ffffffffffffffffffffffffffffffffffffffff1673ffffffffffffffffffffffffffffffffffffffff16815260200190815260200160002054611fef9190612d5f565b60026000836020015173ffffffffffffffffffffffffffffffffffffffff1673ffffffffffffffffffffffffffffffffffffffff168152602001908152602001600020819055506120627fb68ff3b5c6454bb4eef528ce65cd46c2cd96bae686abc5758fa01301e10893fa60001b61299e565b600160008773ffffffffffffffffffffffffffffffffffffffff1673ffffffffffffffffffffffffffffffffffffffff16815260200190815260200160002060008681526020019081526020016000206000808201600090556001820160006101000a81549073ffffffffffffffffffffffffffffffffffffffff021916905550506121107fb75fd4fb215e26428c8508e331aa3539014dcb67cebdf1d355b5933ee6a3139860001b61299e565b61213c7f12755f1f5ec4b388fc75df068bf2b086d82a8006676c3c9fb5f155018d86708c60001b61299e565b8573ffffffffffffffffffffffffffffffffffffffff166342842e0e826020015133886040518463ffffffff1660e01b815260040161217d93929190612db5565b600060405180830381600087803b15801561219757600080fd5b505af11580156121ab573d6000803e3d6000fd5b505050506121db7f07af838696e9285c175d6151d17c7ad6a31469febc5e436d90032da4db76c2ab60001b61299e565b6122077fbd1743a8b24aea13358879f64aa948738fc4c908c19faa63192b3f8a8169db7060001b61299e565b848673ffffffffffffffffffffffffffffffffffffffff163373ffffffffffffffffffffffffffffffffffffffff167f263223b1dd81e51054a4e6f791d45a4a1ddb4aadcd93a2dfd892615c3fdac18784600001516040516122699190612a7a565b60405180910390a45050505060016000819055505050565b82826122af7fae97fb8c2988aebd6738f6203bd36e59e4c7d14fb978f64c735df5eb67530e8960001b61299e565b6122db7f954915a478202b6bdacb3c415aaa0aba9b3154c4d62a52206cb4c11e3fff001e60001b61299e565b6123077feb360237795fdcec15db74341953984f07bc476d79b16f8f3ea74d58c0db9d6360001b61299e565b6000600160008473ffffffffffffffffffffffffffffffffffffffff1673ffffffffffffffffffffffffffffffffffffffff1681526020019081526020016000206000838152602001908152602001600020604051806040016040529081600082015481526020016001820160009054906101000a900473ffffffffffffffffffffffffffffffffffffffff1673ffffffffffffffffffffffffffffffffffffffff1673ffffffffffffffffffffffffffffffffffffffff168152505090506123f27f930e5a533d71d2dee3a129e8b26ac5dc6ee0fd4762ce7ac583a724bb9b77af9c60001b61299e565b61241e7f8847eec46e5076ddf8ffda46ff09d7e89e331ae017fb6c2888dad2e6d565890060001b61299e565b60008160000151116124c1576124567f8cf1841579221626201c04d5ecbb798bce508a67587711ba4e1e078d64db3acf60001b61299e565b6124827fd3dd6190005b971bafb54f296db58723b861a71d11d2ffab03c7295d2489757760001b61299e565b82826040517f6d350f220000000000000000000000000000000000000000000000000000000081526004016124b8929190612bcb565b60405180910390fd5b6124ed7f9a2a63c21196a9ac6cc7c691e660842c475802a149478d18cee8903e4d42a0ae60001b61299e565b6125197f2c7562fdb3b5cb97d4ccc6e4b9843722b28e5a02b2bec96e148cd6cd6c52e69460001b61299e565b8585336125487f8d487aebfe920b1b14f9a6b3ad856608d6d72debf0dde958b3062c37d01544de60001b61299e565b6125747f98660ed6db4aa03b4bc58e81064599b86ecac1a13d18bbe061e4f5dcebd690c460001b61299e565b6125a07f95ba6fc28c15c0202559f2c926446ae6e05fa23e02f6a27f33e03416119001e860001b61299e565b60008390506125d17f0bf5e21f8ae568549908641cf09bae6a7f720838de7f128d3a33b38b371ddcef60001b61299e565b6125fd7ff7e8190802353d83ffdbe86714f986da05ef6e16354d7a9dbc9ce30ba5acf3f360001b61299e565b60008173ffffffffffffffffffffffffffffffffffffffff16636352211e856040518263ffffffff1660e01b81526004016126389190612a7a565b60206040518083038186803b15801561265057600080fd5b505afa158015612664573d6000803e3d6000fd5b505050506040513d601f19601f820116820180604052508101906126889190612c09565b90506126b67fd29043f3603c24acda5fe42185f8c7cde57f0b19fcdcb7e5cdbdfb4e5338760660001b61299e565b6126e27f38af511f00f85b44768ec2fdf41e396aa1ec0a0146025d3c69a72c21971b9eae60001b61299e565b8073ffffffffffffffffffffffffffffffffffffffff168373ffffffffffffffffffffffffffffffffffffffff161461279f576127417fbfa2064f977c58a33e61324c2bc1024fba1bc6a9a9a4b0f310a80f0f0cb945b660001b61299e565b61276d7f3f47f080d38b1c2117cc16b02a39b39eef4aa1f4064167e79adec5a40673444d60001b61299e565b6040517f94953b6000000000000000000000000000000000000000000000000000000000815260040160405180910390fd5b6127cb7f2504e51202c54c11d97144fcf56974e080f2e2f5dfc21faa4bbe11f08ea43ec860001b61299e565b6127f77f5a7c0eba47a7add64cdab858e2de08225b43edc3477efac427bccfd37ced338260001b61299e565b6128237f6dd14c7da10393b610c05ab511c23bccfb3b65554782cf0cc6d693c17257982e60001b61299e565b61284f7f2ab95895dfd71494a638c310d56c7b41fca9d3f4938baf7ecc839f0f0a16bb6b60001b61299e565b61287b7f1c6589fff342747493ee1638c1b8805b7b4e18d551c1148d0e0dc0a75d8d12b060001b61299e565b88600160008d73ffffffffffffffffffffffffffffffffffffffff1673ffffffffffffffffffffffffffffffffffffffff16815260200190815260200160002060008c8152602001908152602001600020600001819055506128ff7f05a510333320c5d40aa0e4eecaad384a082fec2c10d8b3ac0581d3ff7653477060001b61299e565b61292b7fdfa06b61473a5888da94fe8deb3e5cff49c79ec3f659091133a80834c39242b160001b61299e565b898b73ffffffffffffffffffffffffffffffffffffffff163373ffffffffffffffffffffffffffffffffffffffff167fd547e933094f12a9159076970143ebe73234e64480317844b0dcb36117116de48c6040516129899190612a7a565b60405180910390a45050505050505050505050565b50565b604051806040016040528060008152602001600073ffffffffffffffffffffffffffffffffffffffff1681525090565b600080fd5b600073ffffffffffffffffffffffffffffffffffffffff82169050919050565b6000612a01826129d6565b9050919050565b612a11816129f6565b8114612a1c57600080fd5b50565b600081359050612a2e81612a08565b92915050565b600060208284031215612a4a57612a496129d1565b5b6000612a5884828501612a1f565b91505092915050565b6000819050919050565b612a7481612a61565b82525050565b6000602082019050612a8f6000830184612a6b565b92915050565b612a9e81612a61565b8114612aa957600080fd5b50565b600081359050612abb81612a95565b92915050565b60008060408385031215612ad857612ad76129d1565b5b6000612ae685828601612a1f565b9250506020612af785828601612aac565b9150509250929050565b612b0a81612a61565b82525050565b612b19816129f6565b82525050565b604082016000820151612b356000850182612b01565b506020820151612b486020850182612b10565b50505050565b6000604082019050612b636000830184612b1f565b92915050565b600080600060608486031215612b8257612b816129d1565b5b6000612b9086828701612a1f565b9350506020612ba186828701612aac565b9250506040612bb286828701612aac565b9150509250925092565b612bc5816129f6565b82525050565b6000604082019050612be06000830185612bbc565b612bed6020830184612a6b565b9392505050565b600081519050612c0381612a08565b92915050565b600060208284031215612c1f57612c1e6129d1565b5b6000612c2d84828501612bf4565b91505092915050565b600081905092915050565b50565b6000612c51600083612c36565b9150612c5c82612c41565b600082019050919050565b6000612c7282612c44565b9150819050919050565b600082825260208201905092915050565b7f5265656e7472616e637947756172643a207265656e7472616e742063616c6c00600082015250565b6000612cc3601f83612c7c565b9150612cce82612c8d565b602082019050919050565b60006020820190508181036000830152612cf281612cb6565b9050919050565b6000606082019050612d0e6000830186612bbc565b612d1b6020830185612a6b565b612d286040830184612a6b565b949350505050565b7f4e487b7100000000000000000000000000000000000000000000000000000000600052601160045260246000fd5b6000612d6a82612a61565b9150612d7583612a61565b9250827fffffffffffffffffffffffffffffffffffffffffffffffffffffffffffffffff03821115612daa57612da9612d30565b5b828201905092915050565b6000606082019050612dca6000830186612bbc565b612dd76020830185612bbc565b612de46040830184612a6b565b94935050505056fea264697066735822122037d3345bbac527a06eabe894f39a6cca33fa7d258f1d98da7a871794e4aeb52c64736f6c63430008080033",
  "linkReferences": {},
  "deployedLinkReferences": {}
}